:100000000C9434000C9451000C9451000C94510049
:100010000C9451000C9451000C9451000C944F021C
:100020000C9451000C9451000C9451000C9451000C
:100030000C9451000C9451000C9451000C945100FC
:100040000C9451000C9451000C9451000C945100EC
:100050000C9451000C9451000C9451000C945100DC
:100060000C9451000C94510011241FBECFEFD8E026
:10007000DEBFCDBF13E0A0E0B1E0EEE7F8E102C0E3
:1000800005900D92AA32B107D9F723E0AAE2B3E0B6
:1000900001C01D92AC35B207E1F70E942C060C940A
:1000A0003D0C0C9400009BB19F708295807F892B42
:1000B0008BB95B985B9A5B988FEA94E00197F1F7B4
:1000C00000C000000895CF93DF930F92CDB7DEB745
:1000D0008983611561F05A9A898182958F700E9497
:1000E000530089810F90DF91CF910C9453005A985F
:1000F000F3CF60E00C94630061E00C9463008091A6
:100100003B03982F946090933B038C600C94790090
:1001100080913B038B7F80933B0388600C94790034
:1001200081E00E9479008FE39FE10197F1F700C021
:10013000000008958AB18C6F8AB98BB1837F8BB927
:100140002FEF80E792E0215080409040E1F700C01F
:10015000000083E00E9453008FE090E40197F1F7E4
:1001600000C0000083E00E9453008FE090E40197FC
:10017000F1F700C0000083E00E9453008FE090E49C
:100180000197F1F700C0000082E00E9453008FE069
:1001900090E40197F1F700C0000088E20E94790026
:1001A0008FE090E40197F1F700C000000E949000FA
:1001B0008FE090E40197F1F700C0000084E08093A5
:1001C0003B038CE00E9479008FE090E40197F1F707
:1001D00000C00000089582E00E9479008FE39FE153
:1001E0000197F1F700C00000089580913B03982F1C
:1001F000916090933B0389600C94790080913B035C
:100200008E7F80933B0388600C94790080913B0340
:10021000982F926090933B038A600C9479008091B0
:100220003B038D7F80933B0388600C94790088E1C9
:100230000C9479008CE10C94790080913B03982F09
:10024000926090933B0386600C94790080913B030D
:100250008D7F80933B0384600C94790080913B03F5
:10026000982F916090933B0385600C947900809166
:100270003B038E7F80933B0384600C9479000F9343
:100280001F93CF93DF93880F880F880F8873806444
:10029000EB010E9479008E01085F1F4F89910E9437
:1002A0007C00C017D107D1F780E8DF91CF911F9173
:1002B0000F910C947900E62FF0E0E456FE4F908108
:1002C000890F80680C947900FC01DC012C912111CC
:1002D00002C010820895233C61F4DC0111963C9128
:1002E000343AA1F040F43538A1F03639C1F0343851
:1002F00099F0019609C0353A29F0363BD1F70296BC
:1003000026EF02C0029625EE2193DFCF029624EE5F
:10031000FBCF029625ECF8CF029624ECF5CF02969F
:1003200026EDF2CFCF93DF9300D000D0CDB7DEB76C
:1003300089839A830E94640129812B833A813C83BB
:10034000EB81FC818081811107C00F900F900F908D
:100350000F90DF91CF910895EB81FC813196EB8373
:10036000FC830E947C00ECCFEF92FF920F931F93CF
:10037000CF93DF93CDB7DEB78E01075F1F4FF80134
:10038000E190F1908F01C7010E9464019801A701DB
:1003900061E170E08AE293E00E94C6078AE293E09E
:1003A0000E949201DF91CF911F910F91FF90EF90EA
:1003B000089582E08093B00094E09093B100809320
:1003C000700089EF8093B30008952FB7F89460917F
:1003D0003C0370913D0380913E0390913F032FBFFA
:1003E0000895E4E6F0E080818F7B8083E0E7808100
:1003F000826080830895E0E7F0E080818D7F8083D4
:10040000E4E680818064808308958FB7F894109229
:100410003C0310923D0310923E0310923F038FBFA6
:100420000895EFB7F89420913C0330913D0340913B
:100430003E0350913F03DC01CB01820F931FA41FA9
:10044000B51F80933C0390933D03A0933E03B0936C
:100450003F03EFBF0895EF92FF920F931F93EFB703
:10046000F89420913C0330913D0340913E0350911C
:100470003F0379018A01E61AF70A080B190BC70135
:10048000D80180933C0390933D03A0933E03B09327
:100490003F03EFBF1F910F91FF90EF9008951F92C0
:1004A0001FB61F9211248F939F93AF93BF93809198
:1004B0003C0390913D03A0913E03B0913F03019610
:1004C000A11DB11D80933C0390933D03A0933E0377
:1004D000B0933F03BF91AF919F918F911F901FBE2B
:1004E0001F90189580917A0190917B012091610174
:1004F00030916201820F931F2091490130914A018E
:10050000820F931F20912C0130912D01820F931F98
:100510002091120130911301820F931F0895FC0165
:100520009B011616170674F081E090E0808311821B
:10053000828313828483158286831782BC0160873D
:100540007187089560917A0170917B0144E6469F1E
:10055000C001479F900D1124B9010E9400076083DC
:1005600071836091610170916201469FC001479F54
:10057000900D1124B9010E9400076283738360917A
:10058000490170914A01469FC001479F900D112477
:10059000B9010E9400076483758360912C017091FA
:1005A0002D01469FC001479F900D1124B9010E9463
:1005B0000007668377836091120170911301469F53
:1005C000C001479F900D1124B9010E940007B7CFC9
:1005D0008F929F92AF92BF92CF92DF92EF92FF9253
:1005E000CF93DF9300D000D000D0CDB7DEB70E940C
:1005F000E50169837A838B839C830E94E5016B010B
:100600007C010E94E501460157016B017C01898153
:100610009A81AB81BC81C81AD90AEA0AFB0A90E226
:10062000C9169EE4D906E104F10488F00F900F90FA
:100630000F900F900F900F90DF91CF91FF90EF9060
:10064000DF90CF90BF90AF909F908F9008950E94C1
:10065000E5016B017C010E94760763E070E00E9477
:1006600000078D839E830E9490008D819E81813042
:100670009105B9F18230910509F44BC0892B09F03D
:1006800065C060E080E00E945B018BE392E00E9425
:100690009201C601D70188199909AA09BB098838AE
:1006A0009341A105B10518F0B601C701ACCF0E9476
:1006B000E5016B017C01A0E1AD831E820E941A015D
:1006C000BFEF21EE84E0B15020408040E1F700C050
:1006D0000000AD81BE811197AD83BE83AB2B71F756
:1006E000D8CF60E080E00E945B018EE492E00E943F
:1006F0009201C601D70188199909AA09BB0988384E
:100700009341A105B10580F60E94E5016B017C01D2
:10071000F0CF60E080E00E945B018DE692E00E94F5
:1007200092010E94F500C601D70188199909AA090A
:10073000BB0988389341A105B10518F00E94FE005D
:10074000B3CF0E94E5016B017C01EDCF460157015B
:100750005ECF8F929F92AF92BF92CF92DF92EF9235
:10076000FF92CF93DF9300D000D000D0CDB7DEB79B
:100770000E94E50169837A838B839C830E94E50153
:100780006B017C010E94E501460157016B017C0170
:1007900017C00E94E5016B017C010E9476078D83E2
:1007A0009E830E9490008D819E8180FF29C062E01F
:1007B00070E00E940007019709F452C046015701FA
:1007C00089819A81AB81BC81C81AD90AEA0AFB0ADD
:1007D00090E2C9169EE4D906E104F104D0F20F902C
:1007E0000F900F900F900F900F90DF91CF91FF908F
:1007F000EF90DF90CF90BF90AF909F908F90089533
:1008000060E080E00E945B018BE392E00E94920135
:10081000C601D70188199909AA09BB0988389341EB
:10082000A105B10518F0B601C701AECF0E94E501E0
:100830006B017C01A0E1AD831E820E941A01BFEF13
:1008400021EE84E0B15020408040E1F700C000007C
:10085000AD81BE811197AD83BE83AB2B71F7D8CF2D
:1008600060E080E00E945B0184E892E00E949201D7
:10087000C601D70188199909AA09BB09883893418B
:10088000A105B10580F60E94E5016B017C01F0CF66
:10089000CF93DF9300D000D0CDB7DEB7CE01019665
:1008A0000E943E08CE0101960E94F307FC0181815F
:1008B000982F990F990B0F900F900F900F90DF9139
:1008C000CF910895CF92DF92EF92FF92CF93DF9373
:1008D00000D000D000D0CDB7DEB70E94E50169831B
:1008E0007A838B839C830E94E5010E94E5016B0162
:1008F0007C0189819A81AB81BC81C81AD90AEA0A34
:10090000FB0A90E2C9169EE4D906E104F10468F0FE
:100910000F900F900F900F900F900F90DF91CF914D
:10092000FF90EF90DF90CF9008950E94E5016B015A
:100930007C010E94480480FD20C00E94900060E07D
:1009400080E00E945B018AEA92E00E94920188E2C4
:100950008D831E820E941A019FEFA1EEB4E0915098
:10096000A040B040E1F700C000008D819E8101975A
:100970008D839E83892B71F7BCCF0E94900060E02D
:1009800080E00E945B0184EC92E00E949201B1CF72
:10099000CF92DF92EF92FF92CF93DF9300D000D0FF
:1009A000CDB7DEB70E94E50169837A838B839C8390
:1009B0000E94E5016B017C0160E080E00E945B0128
:1009C0008DED92E00E94920161E080E00E945B0167
:1009D00086EF92E00E94920189819A81AB81BC816D
:1009E000C81AD90AEA0AFB0A90E2C9169EE4D90697
:1009F000E104F10458F00F900F900F900F90DF91E9
:100A0000CF91FF90EF90DF90CF9008950E94E50185
:100A10006B017C01E1CFCF92DF92EF92FF92CF93F7
:100A2000DF9300D000D0CDB7DEB70E94E501698327
:100A30007A838B839C830E94E5016B017C0160E0DB
:100A400080E00E945B018CE093E00E94920189812A
:100A50009A81AB81BC81C81AD90AEA0AFB0A90E2E2
:100A6000C9169EE4D906E104F10458F00F900F90E6
:100A70000F900F90DF91CF91FF90EF90DF90CF908C
:100A800008950E94E5016B017C01E1CFFA01E217B4
:100A9000F3077CF09F01220F331F820F931FDC01AD
:100AA0008D919D918617970714F4EFEFFFEFCF011B
:100AB0000895A9014E1B5F0B559547954E0F5F1F7B
:100AC000DA01AA0FBB1FA80FB91F0D90BC91A02D72
:100AD000A617B7071CF4FA013196D9CF9A01D7CFE0
:100AE000EF92FF920F931F93CF93DF93CDB7DEB7B3
:100AF0002C970FB6F894DEBF0FBECDBF8B879C87B7
:100B00008A01FB018191919189839A83DE0111967B
:100B100081E090E07D01801791075CF10E947607EB
:100B2000980121503109F901EE0FFF1FEE0DFF1D55
:100B3000608171810E940007BC016F5F7F4F40E0C0
:100B400050E0C7010E944605880F991FEB85FC8580
:100B5000E80FF91F808191812C960FB6F894DEBFC3
:100B60000FBECDBFDF91CF911F910F91FF90EF90FE
:100B700008952D913D9141915191240F351F2D9351
:100B80003D9312970196C7CF0F931F93CF93DF9397
:100B9000EC010A96FE0100E010E021913191020F74
:100BA000131FE817F907C9F710161106ACF40E94D5
:100BB0007607B8010E940007AC0180E090E09C013C
:100BC00068817981260F371F421753073CF0229620
:100BD000019685309105A1F78FEF9FEFDF91CF91BF
:100BE0001F910F910895CF93C82F8A3019F48DE08B
:100BF0000E94F3058091C00085FFFCCFC093C60022
:100C000080E090E0CF9108958091C00087FFFCCFF5
:100C10008091C60090E008951092C50087E6809309
:100C2000C400E0ECF0E080818D7F808386E08093DB
:100C3000C20088E18093C10008950E940C068AE8F2
:100C400091E080934203909343038CE791E080937B
:100C50004003909341030895CDB7DEB76C970FB66C
:100C6000F894DEBF0FBECDBF0E94D9010E941D06C1
:100C700080E090E00E943E08CB010E947B070E942A
:100C80009A0078940E94720297FF04C080EA91E073
:100C90000E949A078FE18B8B1C8A89E18D8B1E8ABB
:100CA00083E18F8B188E8AE0898F1A8E86E08B8F76
:100CB0001C8E82E1E9E2F2E0DE01119601900D92D4
:100CC0008A95E1F78E010F5F1F4FF8018081811136
:100CD00026C0812C912C5401640174018401CE0141
:100CE00043960E94C4053C017F928F9388EC91E06B
:100CF0009F938F930E9484070F900F900F900F90F7
:100D000077FE1EC07F926F9287ED91E09F938F9345
:100D10000E9484070F900F900F900F90E0CF0F5F0D
:100D20001F4F873291F2853E0E947C002FEF81EEAB
:100D300094E0215080409040E1F700C00000C5CF12
:100D4000F2E06F167104C1F16CF4672849F586EC86
:100D500091E00E949A070E9490000E94E8020F5FB3
:100D60001F4F08C083E06816710491F194E0691682
:100D70007104D1F19F928F92BF92AF92DF92CF9286
:100D8000FF92EF921F930F93E5E0F2E0FF93EF9352
:100D90000E9484070FB6F894DEBF0FBECDBF9FCF71
:100DA0008DEF91E00E949A070E9490000E94A90393
:100DB000EFEFEE1AFE0ADECF8FEF91E00E949A0766
:100DC0000E9490000E946204FFEFCF1ADF0AD2CF88
:100DD00081E092E00E949A070E9490000E94C8045D
:100DE0002FEFA21AB20AC6CF83E092E00E949A07C0
:100DF0000E9490000E940B058FEF881A980ABACFC4
:100E000097FB072E16F4009407D077FD09D00E94B7
:100E1000140707FC05D03EF4909581959F4F0895E7
:100E2000709561957F4F0895AA1BBB1B51E107C0C8
:100E3000AA1FBB1FA617B70710F0A61BB70B881F6A
:100E4000991F5A95A9F780959095BC01CD010895F9
:100E5000AAE0B0E0EEE2F7E00C94070C89879A87ED
:100E6000FC016081718182819381009770406040B4
:100E700021F464E279ED8BE597E02DE133EF41E079
:100E800050E00E94C50B29833A834B835C839B010E
:100E9000AC01A7EAB1E40E94E40B6D837E838F83EB
:100EA0009887ACEEB4EF29813A814B815C810E9436
:100EB000F20B2D813E814F815885260F371F481F29
:100EC000591FC901DA01B7FF03C00197A109B04852
:100ED000E985FA8580839183A283B3839F772A96DD
:100EE000E2E00C94230C0E942807089588E991E021
:100EF0000E94280708958093980190939901109279
:100F00009A0110929B010895A0E0B0E0EAE8F7E0B2
:100F10000C94070CAE014B5F5F4FFA016191719128
:100F2000AF0180914203909143030E945108E2E097
:100F30000C94230C0F931F93CF93DF93E091420304
:100F4000F09143032381EC0100E010E021FD0EC08D
:100F50000FEF1FEFC801DF91CF911F910F910895FF
:100F600021960995892B11F00FEF1FEF8881609171
:100F7000420370914303DB011896ED91FD918111BD
:100F8000EFCF8AE00995892B29F3E2CFAEE0B0E0FC
:100F9000ECECF7E00C94050C8C01CA0146E04C83A4
:100FA00009831A83FB016130704810F0E0E0F0E83B
:100FB0003197ED83FE83A901BC01CE0101960E9409
:100FC00051084D815E8157FD0AC02F813885421737
:100FD00053070CF49A01020F131FF80110822E968A
:100FE000E4E00C94210C66E473E00E94FA0786E4C6
:100FF00093E00895A8E0B0E0E0E0F8E00C94050C80
:101000008D839E836F837887E0915603F091570319
:101010000FEF1FEF309721F062E573E009958C0127
:10102000ED81FE8180819181A281B3814091520343
:10103000509153036091540370915503840F951F91
:10104000A61FB71F101611063CF4012E000C000855
:10105000800F911FA01DB01D89839A83AB83BC8331
:101060006F817885CE0101960E94EB0AEF81F885A9
:10107000028713872896E4E00C94210CFC012FB71B
:10108000F894609158037091590380915A0390919C
:101090005B032FBF309721F060837183828393833A
:1010A0000895ACE0B0E0E7E5F8E00C94FA0B5C01E1
:1010B0006B017A01FC0116821782838181FFD3C103
:1010C0002AE0522EF5012381F60123FD859123FFAD
:1010D00081916F01811509F42CC1853239F423FD0A
:1010E000959123FF91916F01953229F4B50190E01C
:1010F0000E944C0AE7CF30E0712C00E010E0103283
:1011000010F59B32C9F050F49032B9F09332C9F027
:101110009E3261F516FD0DC1106405C09D3279F057
:10112000903399F41160F60123FD959123FF91917D
:101130006F019111E4CF23C012601460F4CF1860E6
:10114000F2CF1061F0CF17FD1AC080ED890F8A3001
:10115000F8F616FF05C0759C800D1124782EE3CF9C
:10116000059D800D1124082F1062DDCF9C3611F4EF
:101170001068D9CF9C3409F440C09836A1F2892F69
:101180008F7D85548330D8F1933609F45FC093374F
:1011900009F46AC0933509F476C0943619F099368B
:1011A00009F0A2C0F70117FF98C061917191819178
:1011B00091917F011F7697FF03C00E94DC0B10689E
:1011C0002AE030E04E014FEF841A940AA4010E94F5
:1011D0008D0A682E681816FFD2C0812F8E7F671483
:1011E00008F0CCC014FF1DC112FD11C11E7E972C4A
:1011F000812F867809F4CEC00FC131E094CF31152C
:1012000009F1F8E0EF0EF11C8FE3898391E0692E7C
:10121000712C4E018FEF881A980A1F7713FD04C0B6
:101220006016710408F43FC06114710409F042C0F3
:10123000011509F447CFB50180E290E00E944C0A05
:101240000150F6CF44E0E40EF11CDECFF7018081BF
:101250008983F2E0EF0EF11C81E0682E712C4E01C3
:101260004FEF841A940AD9CFF701819091907F01B2
:10127000672D70E016FD02C06FEF7FEFC4010E9482
:10128000410A3C01CACFF701819091907F01672DFF
:1012900070E016FD02C06FEF7FEFC4010E94360AB6
:1012A0003C011068BBCFB50180E290E00E944C0A7F
:1012B0000150B6CFF40117FD859117FF81914F01C1
:1012C000B50190E00E944C0A81E0011101C080E06C
:1012D000081BF1E06F1A7108A7CF61917191872FF8
:1012E000880F880B982F65CF9537C9F41F7E1C8710
:1012F0002AE030E0FC85F7FF3BC0F7016191719176
:10130000819191917F014E014FEF841A940AA401BB
:101310000E948D0A682E68181C851F775CCF812F6C
:10132000897F8C87903799F058F49835B9F09F36BB
:10133000E1F0F501868197812C96EFE00C94160C74
:101340009837B9F714FD06C020E130E0D3CF9C8573
:1013500090619C87EC85E460EC87F6CF14FF02C0B7
:1013600016601C8720E132E0C5CF28E030E0C2CF14
:10137000F7016191719180E090E0C4CF182F962C15
:1013800014FF36CFFE01E60DF11D8081803309F098
:1013900041C0197E13FD0EC010FF4FC0762C901671
:1013A00018F4700E7918902E802F8919091508F4F9
:1013B00080E0980E901608F042C0091914FF41C051
:1013C000B50180E390E00E944C0A12FF09C088E555
:1013D00090E011FD02C088E790E0B5010E944C0A40
:1013E0006714D0F14E018FEF881A980A6A94FE01B3
:1013F0003296E60DF11D3F01F30182913F01B501E7
:1014000090E00E944C0A68147904B1F711CF972C30
:10141000182FB8CF12FD02C09394BCCF939493942D
:10142000B9CF972C182FE4CEB50180E290E00E944E
:101430004C0A83948016C0F3B7CF892CFBCF00E011
:10144000BDCF812F867861F280E211FD8BE217FD1E
:101450008DE2B50190E0C2CFB50180E390E00E943B
:101460004C0A7A94BDCF8FEF9FEF66CFFC010590B9
:10147000615070400110D8F7809590958E0F9F1F96
:101480000895FC016150704001900110D8F78095DB
:1014900090958E0F9F1F0895A3E0B0E0E2E5FAE07B
:1014A0000C94060C182F99836A837B83DB011396B7
:1014B0008C9181FD09C01FEFBFEFB983812F998106
:1014C0002396E3E00C94220C82FF1BC0EA81FB818F
:1014D00026813781848195812817390754F401903A
:1014E000F081E02DCF010196AA81BB818D939D9360
:1014F0001083EA81FB818681978101968683978399
:10150000DDCFAA81BB811896ED91FD911A97BD019F
:10151000812F0995892B69F3CECFFA01AA272830AC
:1015200051F1203181F1E8946F936E7F6E5F7F4FB0
:101530008F4F9F4FAF4FB1E03ED0B4E03CD0670F2C
:10154000781F891F9A1FA11D680F791F8A1F911D7F
:10155000A11D6A0F711D811D911DA11D20D009F4CF
:1015600068943F912AE0269F11243019305D319311
:10157000DEF6CF010895462F4770405D4193B3E0FA
:101580000FD0C9F7F6CF462F4F70405D4A3318F0A1
:10159000495D31FD4052419302D0A9F7EACFB4E052
:1015A000A6959795879577956795BA95C9F700970A
:1015B0006105710508959B01AC010A2E06945795AB
:1015C000479537952795BA95C9F7620F731F841F02
:1015D000951FA01D0895A8E0B0E0E1EFFAE00C949B
:1015E000010C8B01FC01608171818281938120E873
:1015F00031E541E050E00E94A30B69017A012CE340
:1016000030E040E050E00E94C50B29833A834B83D1
:101610005C83F80160836CE370E089819A810E94A9
:101620000007F80181836283C601069667E070E0D7
:101630000E94140784832DEA3EE840E050E0B601A2
:10164000C7010E94C50B29833A836D837E838F83F4
:10165000988789819A8124E6289F6001299FD00C70
:1016600011246D817E818F81988525EB35E040E0E6
:1016700050E00E94C50B29833A836D837E83E98005
:10168000FA80EE0CFF1CEE0CFF1CEC0CFD1C8D8197
:101690009E81F5E6EF16F10488F1019621E030E035
:1016A000A90144595E4F4817590750F46DE671E09F
:1016B000821B930B0E940007E60EF71E20E030E02D
:1016C00044E6E40EF11CF801E682F78280879187F8
:1016D000255C3F4F82179307D0F46FE170E00E94C2
:1016E0000007A82F862F2A2FF801858312861386DC
:1016F0002F5F23832896E8E00C941D0C41E024E63C
:10170000E216F10409F440E0242F30E0C9CF69E982
:1017100070E0821B930B0E940007262F220F220FDE
:10172000E22EE60E6DE370E00E940007F62EFF0C3D
:101730006FE170E00E940007A82F862F2A2F8E5F8E
:101740008E0D8F0DD1CFA1E21A2EAA1BBB1BFD015E
:101750000DC0AA1FBB1FEE1FFF1FA217B307E40790
:10176000F50720F0A21BB30BE40BF50B661F771FE8
:10177000881F991F1A9469F76095709580959095C8
:101780009B01AC01BD01CF010895052E97FB1EF40E
:1017900000940E94DC0B57FD07D00E94A30B07FCAE
:1017A00003D04EF40C94DC0B509540953095219568
:1017B0003F4F4F4F5F4F089590958095709561957D
:1017C0007F4F8F4F9F4F08950E942E0CA59F900D25
:1017D000B49F900DA49F800D911D11240895B7FF13
:1017E0000C94E40B0E94E40B821B930B08952F9240
:1017F0003F924F925F926F927F928F929F92AF92A1
:10180000BF92CF92DF92EF92FF920F931F93CF93ED
:10181000DF93CDB7DEB7CA1BDB0B0FB6F894DEBF84
:101820000FBECDBF09942A88398848885F846E84AA
:101830007D848C849B84AA84B984C884DF80EE80F4
:10184000FD800C811B81AA81B981CE0FD11D0FB6FD
:10185000F894DEBF0FBECDBFED010895A29FB00189
:10186000B39FC001A39F700D811D1124911DB29FD4
:0E187000700D811D1124911D0895F894FFCF75
:10187E00494F543A732052656B6C616D627972C335
:10188E00A500E8034CC3A56E6762656E73206465A0
:10189E0074656B746976627972C3A500A00F537676
:1018AE00617274652050657474657273205376612D
:1018BE00727462796767656E00DC054661726D6FE2
:1018CE007220416E6B61732050616A6572204142D5
:1018DE0000B80B48656465726C6967652048617273
:1018EE007279732042696C617200881300000001E6
:1018FE0000000000000004060000000000020000CE
:10190E000000F30500000000010000000040145428
:10191E005761726E696E673A207061796D656E748B
:10192E0053756D203C20302C20726573657474697C
:10193E006E6720746F20300072616E646F6D206E62
:10194E00756D6225640A0052616E646F6D20736559
:10195E006C656374696F6E206661696C656420776F
:10196E0069746820636F64652025640A0031003253
:10197E000033003400467265712061727261792005
:10198E00696E206D61696E3A2025642025642025DC
:10199E00642025642025640A00536B7269762069E1
:1019AE006E206B27F62764656E3A004BC3B6702027
:1019BE0062696C20686F7320486172727900456E9F
:1019CE0020676F642062696C616666C3A47220280A
:1019DE0066C3B67220486172727921290048656427
:1019EE0065726C696765204861727279732042690D
:1019FE006C617200536B796E646120696E6E616EFC
:101A0E00204DC3A57274656E20C3A47469742061E1
:101A1E006C6C612070616A6572004CC3A5742050B5
:101A2E00657474657220627967676120C3A574203E
:101A3E006469670042796767612073766172743FEB
:101A4E002052696E6720506574746572004D79730B
:101A5E007465726965723F2052696E67204CC3A52A
:101A6E006E6762656E004CC3A56E6762656E20661A
:101A7E00697861722062696666656E0053796E617F
:101A8E00732068C3A4723F20494F543A73205265A5
:0A1A9E006B6C616D627972C3A500E4
:00000001FF
