:100000000C9438000C9455000C9455000C94550039
:100010000C9455000C9455000C9455000C9453020C
:100020000C9455000C9455000C9455000C945500FC
:100030000C9455000C9455000C9455000C945500EC
:100040000C9455000C9455000C9455000C945500DC
:100050000C9455000C9455000C9455000C945500CC
:100060000C9455000C9455006E616E00696E66002C
:1000700011241FBECFEFD8E0DEBFCDBF13E0A0E05C
:10008000B1E0EEE5F4E202C005900D92AE33B107A7
:10009000D9F723E0AEE3B3E001C01D92A037B20769
:1000A000E1F70E94730A0C94B0110C9400009BB10C
:1000B0009F708295807F892B8BB95B985B9A5B9848
:1000C0008FEA94E00197F1F700C000000895CF9304
:1000D000DF930F92CDB7DEB78983611561F05A9A2D
:1000E000898182958F700E94570089810F90DF91DE
:1000F000CF910C9457005A98F3CF60E00C946700AE
:1001000061E00C94670080914F03982F9460909366
:100110004F038C600C947D0080914F038B7F809304
:100120004F0388600C947D0081E00E947D008FE386
:100130009FE10197F1F700C0000008958AB18C6F2C
:100140008AB98BB1837F8BB92FEF80E792E0215082
:1001500080409040E1F700C0000083E00E9457001B
:100160008FE090E40197F1F700C0000083E00E9467
:1001700057008FE090E40197F1F700C0000083E0A2
:100180000E9457008FE090E40197F1F700C0000053
:1001900082E00E9457008FE090E40197F1F700C0E1
:1001A000000088E20E947D008FE090E40197F1F763
:1001B00000C000000E9494008FE090E40197F1F7E6
:1001C00000C0000084E080934F038CE00E947D001B
:1001D0008FE090E40197F1F700C00000089582E0FD
:1001E0000E947D008FE39FE10197F1F700C00000BE
:1001F000089580914F03982F916090934F038960E9
:100200000C947D0080914F038E7F80934F03886014
:100210000C947D0080914F03982F926090934F0330
:100220008A600C947D0080914F038D7F80934F03F3
:1002300088600C947D0088E10C947D008CE10C9426
:100240007D0080914F03982F926090934F038660BA
:100250000C947D0080914F038D7F80934F038460C9
:100260000C947D0080914F03982F916090934F03E1
:1002700085600C947D0080914F038E7F80934F03A7
:1002800084600C947D000F931F93CF93DF93880FAE
:10029000880F880F88738064EB010E947D008E01B7
:1002A000085F1F4F89910E948000C017D107D1F7C6
:1002B00080E8DF91CF911F910F910C947D00E62F84
:1002C000F0E0EA55FE4F9081890F80680C947D0024
:1002D000FC01DC012C91211102C010820895233C05
:1002E00061F4DC0111963C91343AA1F040F43538C8
:1002F000A1F03639C1F0343899F0019609C0353A89
:1003000029F0363BD1F7029626EF02C0029625EE81
:100310002193DFCF029624EEFBCF029625ECF8CF97
:10032000029624ECF5CF029626EDF2CFCF93DF9321
:1003300000D000D0CDB7DEB789839A830E946801D0
:1003400029812B833A813C83EB81FC81808181115F
:1003500007C00F900F900F900F90DF91CF910895ED
:10036000EB81FC813196EB83FC830E948000ECCF13
:10037000EF92FF920F931F93CF93DF93CDB7DEB72A
:100380008E01075F1F4FF801E190F1908F01C701C7
:100390000E9468019801A70161E170E08EE393E09B
:1003A0000E94B40F8EE393E00E949601DF91CF91FB
:1003B0001F910F91FF90EF90089582E08093B0001D
:1003C00094E09093B1008093700089EF8093B30024
:1003D00008952FB7F8946091500370915103809164
:1003E0005203909153032FBF0895E4E6F0E080811B
:1003F0008F7B8083E0E78081826080830895E0E7DF
:10040000F0E080818D7F8083E4E68081806480835A
:1004100008958FB7F89410925003109251031092E0
:100420005203109253038FBF0895EFB7F8942091B1
:100430005003309151034091520350915303DC011A
:10044000CB01820F931FA41FB51F8093500390937D
:100450005103A0935203B0935303EFBF0895EF925B
:10046000FF920F931F93EFB7F894209150033091B0
:100470005103409152035091530379018A01E61AC6
:10048000F70A080B190BC701D8018093500390930A
:100490005103A0935203B0935303EFBF1F910F91E9
:1004A000FF90EF9008951F921FB61F9211248F9313
:1004B0009F93AF93BF938091500390915103A0916C
:1004C0005203B09153030196A11DB11D80935003B7
:1004D00090935103A0935203B0935303BF91AF91F4
:1004E0009F918F911F901FBE1F90189540E050E084
:1004F0009A016091820170918301809184019091B1
:1005000085010E948B0B0E94690C872F880F880B36
:10051000982F0E94A10C20916701309168014091B1
:10052000690150916A010E948B0B0E94690C872F10
:10053000880F880B982F0E94A10C20914D013091BB
:100540004E0140914F01509150010E948B0B0E942F
:10055000690C872F880F880B982F0E94A10C20917F
:100560002E0130912F0140913001509131010E94B4
:100570008B0B0E94690C872F880F880B982F0E9485
:10058000A10C20911201309113014091140150915E
:1005900015010E948B0B0E94690CCB010895CF922C
:1005A000DF92EF92FF92CF93DF93EC0116161706BE
:1005B000A4F081E090E0888319828A831B828C8377
:1005C0001D828E831F82BC0168877987DF91CF915E
:1005D000FF90EF90DF90CF900895872F880F880BC2
:1005E000982F0E94A10C6B017C019B01AC016091D2
:1005F00082017091830180918401909185010E9414
:10060000F70B20E030E048EC52E40E942D0D0E94F0
:100610009A0D0E94690C688379839601A701609105
:100620006701709168018091690190916A010E944F
:10063000F70B20E030E048EC52E40E942D0D0E94C0
:100640009A0D0E94690C6A837B839601A7016091D1
:100650004D0170914E0180914F01909150010E9487
:10066000F70B20E030E048EC52E40E942D0D0E9490
:100670009A0D0E94690C6C837D839601A70160919D
:100680002E0170912F0180913001909131010E94D3
:10069000F70B20E030E048EC52E40E942D0D0E9460
:1006A0009A0D0E94690C6E837F839601A701609169
:1006B00012017091130180911401909115010E9413
:1006C000F70B20E030E048EC52E40E942D0D0E9430
:1006D0009A0D0E94690C78CF8F929F92AF92BF9231
:1006E000CF92DF92EF92FF92CF93DF9300D000D0B2
:1006F00000D0CDB7DEB70E94E90169837A838B838E
:100700009C830E94E9016B017C010E94E901460182
:1007100057016B017C0189819A81AB81BC81C81A28
:10072000D90AEA0AFB0A90E2C9169EE4D906E10456
:10073000F10488F00F900F900F900F900F900F9092
:10074000DF91CF91FF90EF90DF90CF90BF90AF906F
:100750009F908F9008950E94E9016B017C010E9497
:10076000350E63E070E00E94230B8D839E830E9410
:1007700094008D819E818130910509F43FC08230C3
:10078000910509F45BC0892B09F07DC060E080E031
:100790000E945F0183E392E00E94960161E080E0A5
:1007A0000E945F018CE392E00E949601C601D7018E
:1007B00088199909AA09BB0988389341A105B1058F
:1007C00018F0B601C701A3CF0E94E9016B017C01BB
:1007D000A0E1AD831E820E941E01BFEF21EE84E0E6
:1007E000B15020408040E1F700C00000AD81BE81E3
:1007F0001197AD83BE83AB2B71F7D8CF60E080E05B
:100800000E945F0186E492E00E94960161E080E030
:100810000E945F0188E592E00E949601C601D7011F
:1008200088199909AA09BB0988389341A105B1051E
:1008300040F60E94E9016B017C01F0CF60E080E0AE
:100840000E945F0186E692E00E94960161E080E0EE
:100850000E945F0187E792E00E9496010E94F900E2
:10086000C601D70188199909AA09BB09883893419B
:10087000A105B10518F00E940201A3CF0E94E90171
:100880006B017C01EDCF4601570145CF8F929F92BE
:10089000AF92BF92CF92DF92EF92FF92CF93DF930E
:1008A00000D000D000D0CDB7DEB70E94E901698347
:1008B0007A838B839C830E94E9016B017C010E94F7
:1008C000E901460157016B017C0117C00E94E90153
:1008D0006B017C010E94350E8D839E830E949400E3
:1008E0008D819E8180FF29C062E070E00E94230B11
:1008F000019709F45AC04601570189819A81AB8159
:10090000BC81C81AD90AEA0AFB0A90E2C9169EE419
:10091000D906E104F104D0F20F900F900F900F90E0
:100920000F900F90DF91CF91FF90EF90DF90CF90DD
:10093000BF90AF909F908F90089560E080E00E94FC
:100940005F018DE792E00E94960161E080E00E94E5
:100950005F0187E892E00E949601C601D7018819DD
:100960009909AA09BB0988389341A105B10518F076
:10097000B601C701A6CF0E94E9016B017C01A0E18D
:10098000AD831E820E941E01BFEF21EE84E0B150B4
:1009900020408040E1F700C00000AD81BE8111978A
:1009A000AD83BE83AB2B71F7D8CF60E080E00E94AF
:1009B0005F0187E992E00E94960161E080E00E9479
:1009C0005F018CEA92E00E949601C601D701881966
:1009D0009909AA09BB0988389341A105B10540F6D8
:1009E0000E94E9016B017C01F0CFCF93DF9300D02F
:1009F00000D0CDB7DEB7CE0101960E948A10CE019D
:100A000001960E943F10FC018181982F990F990B4C
:100A10000F900F900F900F90DF91CF910895CF928C
:100A2000DF92EF92FF92CF93DF9300D000D000D0FF
:100A3000CDB7DEB70E94E90169837A838B839C83FB
:100A40000E94E9016B017C0189819A81AB81BC81A3
:100A5000C81AD90AEA0AFB0A90E2C9169EE4D90626
:100A6000E104F10468F00F900F900F900F900F9039
:100A70000F90DF91CF91FF90EF90DF90CF9008958E
:100A80000E94E9016B017C010E94F50480FD28C0F1
:100A90000E94940060E080E00E945F018DEB92E094
:100AA0000E94960161E080E00E945F0189EC92E083
:100AB0000E94960188E28D831E820E941E019FEF94
:100AC000A1EEB4E09150A040B040E1F700C00000BA
:100AD0008D819E8101978D839E83892B71F7B4CF81
:100AE0000E94940060E080E00E945F0187ED92E048
:100AF0000E94960161E080E00E945F0184EE92E036
:100B00000E949601A1CFCF92DF92EF92FF92CF93F6
:100B1000DF9300D000D0CDB7DEB70E94E901698332
:100B20007A838B839C830E94E9016B017C0160E0E6
:100B300080E00E945F0180EF92E00E94960161E0F8
:100B400080E00E945F0189E093E00E949601898124
:100B50009A81AB81BC81C81AD90AEA0AFB0A90E2E1
:100B6000C9169EE4D906E104F10458F00F900F90E5
:100B70000F900F90DF91CF91FF90EF90DF90CF908B
:100B800008950E94E9016B017C01E1CFCF92DF92D1
:100B9000EF92FF92CF93DF9300D000D0CDB7DEB7B6
:100BA0000E94E90169837A838B839C830E94E90117
:100BB0006B017C0160E080E00E945F018FE193E0C7
:100BC0000E94960161E080E00E945F018BE293E069
:100BD0000E94960189819A81AB81BC81C81AD90A89
:100BE000EA0AFB0A90E2C9169EE4D906E104F10480
:100BF00058F00F900F900F900F90DF91CF91FF90D2
:100C0000EF90DF90CF9008950E94E9016B017C0185
:100C1000E1CFFA01E217F3077CF09F01220F331FA7
:100C2000820F931FDC018D919D918617970714F415
:100C3000EFEFFFEFCF010895A9014E1B5F0B559514
:100C400047954E0F5F1FDA01AA0FBB1FA80FB91FF0
:100C50000D90BC91A02DA617B7071CF4FA01319690
:100C6000D9CF9A01D7CFEF92FF920F931F93CF93D3
:100C7000DF93CDB7DEB72C970FB6F894DEBF0FBE6B
:100C8000CDBF8B879C878A01FB01819191918983DC
:100C90009A83DE01119681E090E07D018017910733
:100CA0005CF10E94350E980121503109F901EE0FD7
:100CB000FF1FEE0DFF1D608171810E94230BBC019F
:100CC0006F5F7F4F40E050E0C7010E940906880F28
:100CD000991FEB85FC85E80FF91F808191812C9687
:100CE0000FB6F894DEBF0FBECDBFDF91CF911F913D
:100CF0000F91FF90EF9008952D913D914191519169
:100D0000240F351F2D933D9312970196C7CF0F9354
:100D10001F93CF93DF93EC010A96FE0100E010E0F1
:100D200021913191020F131FE817F907C9F7101627
:100D30001106ACF40E94350EB8010E94230BAC01E1
:100D400080E090E09C0168817981260F371F42176F
:100D500053073CF02296019685309105A1F78FEF5D
:100D60009FEFDF91CF911F910F910895CF93C82FDF
:100D70008A3019F48DE00E94B6068091C00085FF8C
:100D8000FCCFC093C60080E090E0CF9108958091A1
:100D9000C00087FFFCCF8091C60090E008951092BC
:100DA000C50087E68093C400E0ECF0E080818D7F91
:100DB000808386E08093C20088E18093C10008951B
:100DC0000E94CF0684E991E08093560390935703E5
:100DD00086E891E080935403909355030895AFE023
:100DE000B0E0E5EFF6E00C943F0B7C013B015A01CB
:100DF000FC0116821782838181FF51C39AE0292E5C
:100E0000F7012381F30123FD859123FF81913F01A8
:100E1000811509F442C0853239F423FD959123FFF1
:100E200091913F01953239F4B70190E00E94310F62
:100E300065015601E5CF30E010E0812C912CF0E205
:100E40008F1608F03CC09B3279F160F4903271F15A
:100E5000933291F19E3209F045C086FC1EC0689421
:100E600086F806C09D3229F1903359F5689480F8D0
:100E7000F30123FD959123FF91913F019111DFCF64
:100E8000082D097F903709F481C208F077C29835A0
:100E900009F47FC29F3609F483C2F70186819781E6
:100EA0002F96E2E10C945B0B689481F8689482F8C9
:100EB000DFCF689483F8DCCF689484F8D9CF87FCBF
:100EC0001BC080ED890F8A3028F686FE05C0129D72
:100ED000800D1124182FCCCF929C800D1124982EB8
:100EE0008F2AC6CF9C3619F4689487F8C1CF9C34FA
:100EF00009F1983609F4BCCF3115F1F0892F8F7DB7
:100F00008554833008F095C1650128E0C20ED11CDC
:100F10008FE3898301E010E05E013FEFA31AB30A7B
:100F2000E89487F883FC04C00915110508F4E8C1AA
:100F3000592CFEC131E09CCF8BEB890F833090F4AC
:100F4000689484F8905E86FE16E04FE3842295361E
:100F500089F4689486F8212F183010F027E017E004
:100F6000412C14C08BE9890F833008F062C1E894EA
:100F700084F8E9CF963699F5689487F8812F1C3369
:100F800008F08BE344244394480E27E0F501619177
:100F90007191819191916F01042DAE014F5F5F4F6F
:100FA0000E94430E5C013980832D89700DE28130EF
:100FB00029F082FA002705F981FC0BE2F32DFC7081
:100FC0005F2EF11541F133FA332433F801116AC26F
:100FD00024E0512C921608F47CC283E068C220E021
:100FE000111509F4BDCF1150B6CF81108052B70151
:100FF00090E00E94310F0F5F1F4FF8018491811123
:10100000F4CF511409F415CFB70180E290E00E94AB
:10101000310F5A94F6CF87FE2FC0842D8A0D34FEEF
:1010200004C09A81913309F48150442443941816E2
:1010300034F4482EF9E08F1710F088E0482EC501EF
:10104000B7FE02C080E090E00196011101961115F3
:1010500031F0212F30E02F5F3F4F820F931F891512
:10106000910514F4592C581A882D8970A1F5511046
:101070002BC00115C9F131C086FC23C0E12FF0E07F
:101080001A151B043CF02CEFA2162FEFB20614F039
:10109000689487F8CE010396E80FF91F01C011503C
:1010A000111519F082918033D1F387FE0AC04424D0
:1010B0004394410EA116B10414F41A19C0CF10E0E4
:1010C000BECF85E090E0C1CFB70180E290E00E9402
:1010D000310F5A94CCCF011529F0B701802F90E041
:1010E0000E94310F83FC02C051103FC087FE56C0E2
:1010F0004501B7FE02C0812C912CCE0101968A0DCC
:101100009B1DFC01E819F909EC87FD87950124195D
:1011100031092E873F87012F10E0119501951109A4
:10112000A814B9044CF18E859F858815990524F57E
:10113000EC85FD858181F1E08F1A9108801691067A
:10114000ECF02C853D852F5F3F4F2C873D87B70105
:1011500090E00E94310F3FEF8316980409F7B70122
:101160008EE290E00E94310FDBCFB70180E390E088
:101170000E94310F5A94B8CF80E3DDCFA814B90490
:1011800031F49A81953318F039F434FE05C0B70173
:1011900090E00E94310F35CF81E3F9CF8A8181330E
:1011A00011F0E89434F8B70190E00E94310F11116A
:1011B00024C085E490E084FC02C085E690E0B7019D
:1011C0000E94310FA114B1041CF061F534FE2AC055
:1011D000B194A194B1088DE2B70190E00E94310F63
:1011E00080E39AE0A916B104FCF4B70190E00E94F4
:1011F000310FB701C501C096CCCFB7018EE290E0A8
:101200000E94310F1E5F02E0802F0F5FFE013196BA
:10121000E80FF11D8081B70190E00E94310F0113AA
:10122000F3CFC7CF8BE2D8CF8F5F4AE0A41AB108C3
:10123000D8CF9336B9F1933709F442C0933509F406
:101240004EC0943619F0993609F07EC0F50187FE3C
:1012500073C061917191819191916F01082D0F7609
:1012600097FF03C00E94370B00682AE030E05E0160
:10127000FFEFAF1ABF0AA5010E94E10FB82EBA18FE
:1012800006FF98C0802F8E7FB11608F092C004FF31
:10129000E4C002FDD8C00E7E512E802F867809F45E
:1012A00094C0D6C06501E2E0CE0ED11CF50180816C
:1012B000898301E010E05E01FFEFAF1ABF0A30CE74
:1012C000F501A190B1906F01612F70E086FC02C022
:1012D0006FEF7FEFC5010E94260F8C0121CEF50133
:1012E000A190B1906F01612F70E086FC02C06FEF9A
:1012F0007FEFC5010E941B0F8C01689487F812CE06
:10130000B70180E290E00E94310F9A940DCEF50172
:1013100087FC859187FE81915F01B70190E00E9473
:10132000310F81E0511001C080E0581A01501109BD
:101330000115110561F765CE619171916F01872FDC
:10134000880F880B982F8ACF953709F099CD082DF3
:101350000F7E2AE030E0F50107FF25C06191719111
:10136000819191916F015E01FFEFAF1ABF0AA50154
:101370000E94E10FB82EBA180F7782CF983709F084
:101380008CCD84FC04C020E130E0E5CF0061046036
:10139000FACF84FE02C0082D066020E132E0DBCFE8
:1013A00028E030E0D8CF619171916F0180E090E04A
:1013B000DACF082F5B2C04FF70CFFE01EB0DF11D7F
:1013C0008081803309F042C0097E03FD0EC000FF1A
:1013D00050C01B2D591418F4190D1519592C892DAD
:1013E0008519951408F480E0580E591408F043C08C
:1013F0009518592C04FF41C0B70180E390E00E948A
:10140000310F02FF09C088E590E001FD02C088E7C6
:1014100090E0B7010E94310FB116D0F18E010F5F3D
:101420001F4FBA949E012E5F3F4F2B0D311D590166
:10143000F50182915F01B70190E00E94310FA01683
:10144000B106B1F7DECD512E082FB7CF02FD02C095
:101450005394BBCF53945394B8CF512E082F1DCF24
:10146000B70180E290E00E94310FA394A914C0F369
:10147000B6CFA52CFBCF512CBDCF802F867861F243
:1014800080E201FD8BE207FD8DE2B70190E0C2CF63
:10149000B70180E390E00E94310F1150BDCF8FEF74
:1014A0009FEFFECCF5E0512C9F1670F084E0592C94
:1014B000581A83FC07C0B70180E290E00E94310F08
:1014C0005A94C9F7011529F0B701802F90E00E94C6
:1014D000310F08E610E0311002C00CE610E084FA8B
:1014E000882484F88ACDCDB7DEB72C970FB6F89450
:1014F000DEBF0FBECDBF0E94DD010E94E00680E08E
:1015000090E00E948A10CB010E943A0E0E949E0039
:1015100078940E94760297FF06C08AEA91E00E94C2
:10152000880F80E090E0BC013E012FEF621A720A42
:10153000C3010E94CF02E12CF12C87016701560103
:1015400046016B867C868B859C850E9487063C01C4
:101550007F928F9382ED91E09F938F930E94720F01
:101560000F900F900F900F9077FE0DC07F926F92AB
:1015700081EE91E09F938F930E94720F0F900F90D6
:101580000F900F90E0CF82E068167104C9F174F4F7
:10159000672851F580ED91E00E94880F0E94940029
:1015A0000E946C039FEF891A990A08C023E0621613
:1015B000710491F184E068167104C9F1FF92EF9211
:1015C0001F930F93DF92CF92BF92AF929F928F9211
:1015D0008FE092E09F938F930E94720F0FB6F89462
:1015E000DEBF0FBECDBFAFCF87E092E00E94880F75
:1015F0000E9494000E9446042FEFA21AB20ADECF86
:1016000089E092E00E94880F0E9494000E940F05DA
:101610008FEFC81AD80AD2CF8BE092E00E94880FD1
:101620000E9494000E9483050F5F1F4FC7CF8DE07B
:1016300092E00E94880F0E9494000E94C6059FEFCE
:10164000E91AF90ABBCF97FB072E16F4009407D0CE
:1016500077FD09D00E94760B07FC05D03EF49095EB
:1016600081959F4F0895709561957F4F089590954E
:101670008095709561957F4F8F4F9F4F08952F9262
:101680003F924F925F926F927F928F929F92AF9212
:10169000BF92CF92DF92EF92FF920F931F93CF935F
:1016A000DF93CDB7DEB7CA1BDB0B0FB6F894DEBFF6
:1016B0000FBECDBF09942A88398848885F846E841C
:1016C0007D848C849B84AA84B984C884DF80EE8066
:1016D000FD800C811B81AA81B981CE0FD11D0FB66F
:1016E000F894DEBF0FBECDBFED010895AA1BBB1B52
:1016F00051E107C0AA1FBB1FA617B70710F0A61B12
:10170000B70B881F991F5A95A9F780959095BC0132
:10171000CD0108955058BB27AA270E94A20B0C9414
:10172000F30C0E94E50C38F00E94EC0C20F039F428
:101730009F3F19F426F40C94E20C0EF4E095E7FBBD
:101740000C94DC0CE92F0E94040D58F3BA176207C1
:1017500073078407950720F079F4A6F50C94260DFD
:101760000EF4E0950B2EBA2FA02D0B01B9019001BC
:101770000C01CA01A0011124FF27591B99F0593F00
:1017800050F4503E68F11A16F040A22F232F342F48
:101790004427585FF3CF469537952795A795F04096
:1017A0005395C9F77EF41F16BA0B620B730B840BAB
:1017B000BAF09150A1F0FF0FBB1F661F771F881F63
:1017C000C2F70EC0BA0F621F731F841F48F48795BB
:1017D00077956795B795F7959E3F08F0B0CF9395AD
:1017E000880F08F09927EE0F9795879508950E9426
:1017F0000B0C0C94F30C0E94EC0C58F00E94E50CBE
:1018000040F029F45F3F29F00C94DC0C51110C944A
:10181000270D0C94E20C0E94040D68F39923B1F398
:10182000552391F3951B550BBB27AA276217730706
:10183000840738F09F5F5F4F220F331F441FAA1F9A
:10184000A9F335D00E2E3AF0E0E832D09150504056
:10185000E695001CCAF72BD0FE2F29D0660F771F04
:10186000881FBB1F261737074807AB07B0E809F0EA
:10187000BB0B802DBF01FF2793585F4F3AF09E3F6F
:10188000510578F00C94DC0C0C94270D5F3FE4F3C9
:10189000983ED4F3869577956795B795F7959F5FB2
:1018A000C9F7880F911D9695879597F90895E1E0FE
:1018B000660F771F881FBB1F621773078407BA075D
:1018C00020F0621B730B840BBA0BEE1F88F7E095B8
:1018D00008950E94700C6894B1110C94270D08951E
:1018E0000E940C0D88F09F5798F0B92F9927B75197
:1018F000B0F0E1F0660F771F881F991F1AF0BA95B4
:10190000C9F714C0B13091F00E94260DB1E00895DE
:101910000C94260D672F782F8827B85F39F0B93FD0
:10192000CCF3869577956795B395D9F73EF4909566
:101930008095709561957F4F8F4F9F4F0895E894E4
:1019400009C097FB3EF490958095709561957F4F07
:101950008F4F9F4F9923A9F0F92F96E9BB279395B5
:10196000F695879577956795B795F111F8CFFAF4C5
:10197000BB0F11F460FF1BC06F5F7F4F8F4F9F4FF6
:1019800016C0882311F096E911C0772321F09EE854
:10199000872F762F05C0662371F096E8862F70E0BA
:1019A00060E02AF09A95660F771F881FDAF7880F94
:1019B0009695879597F9089597F99F6780E870E065
:1019C00060E008959FEF80EC089500240A941616B5
:1019D000170618060906089500240A94121613061D
:1019E000140605060895092E0394000C11F48823AB
:1019F00052F0BB0F40F4BF2B11F460FF04C06F5FC7
:101A00007F4F8F4F9F4F089557FD9058440F551F9C
:101A100059F05F3F71F04795880F97FB991F61F070
:101A20009F3F79F087950895121613061406551FE7
:101A3000F2CF4695F1DF08C0161617061806991F53
:101A4000F1CF86957105610508940895E894BB2748
:101A500066277727CB0197F908950E94400D0C94D3
:101A6000F30C0E94E50C38F00E94EC0C20F095235A
:101A700011F00C94DC0C0C94E20C11240C94270D46
:101A80000E94040D70F3959FC1F3950F50E0551F10
:101A9000629FF001729FBB27F00DB11D639FAA27C3
:101AA000F00DB11DAA1F649F6627B00DA11D661F12
:101AB000829F2227B00DA11D621F739FB00DA11D33
:101AC000621F839FA00D611D221F749F3327A00DED
:101AD000611D231F849F600D211D822F762F6A2F89
:101AE00011249F5750409AF0F1F088234AF0EE0FEE
:101AF000FF1FBB1F661F771F881F91505040A9F71B
:101B00009E3F510580F00C94DC0C0C94270D5F3F38
:101B1000E4F3983ED4F3869577956795B795F79556
:101B2000E7959F5FC1F7FE2B880F911D96958795CE
:101B300097F908950E940C0DE8F09E37E8F0963969
:101B4000B8F49E3848F4672F782F8827985FF9CF2C
:101B500086957795679593959539D0F3B62FB170A3
:101B60006B0F711D811D20F487957795679593956F
:101B70000C94BE0D0C94D90D0C94270D882371F490
:101B8000772321F09850872B762F07C0662311F416
:101B900099270DC09051862B70E060E02AF09A954D
:101BA000660F771F881FDAF7880F9695879597F944
:101BB00008959F3F31F0915020F487957795679570
:101BC000B795880F911D9695879597F90895AAE086
:101BD000B0E0EDEEFDE00C944F0B89879A87FC0195
:101BE000608171818281938100977040604021F40F
:101BF00064E279ED8BE597E02DE133EF41E050E0D1
:101C00000E94771129833A834B835C839B01AC014B
:101C1000A7EAB1E40E948E116D837E838F8398873B
:101C2000ACEEB4EF29813A814B815C810E949C111A
:101C30002D813E814F815885260F371F481F591F20
:101C4000C901DA01B7FF03C00197A109B048E985CE
:101C5000FA8580839183A283B3839F772A96E2E0FB
:101C60000C946B0B0E94E70D089582EA91E00E94AC
:101C7000E70D08958093A2019093A3011092A4010F
:101C80001092A5010895283008F027E03327DA01E3
:101C9000990F311D87FD916000966105710539F43A
:101CA00032602E5F3D9330E32A95E1F708959F3F20
:101CB00030F080387105610509F03C5F3C5F3D9371
:101CC000913008F08068911DDF93CF931F930F939D
:101CD000FF92EF92192F987F9695E92F96959695FA
:101CE000E90FFF27E254FC4D99273327EE24FF2408
:101CF000A701E70105900894079428F4360FE71E22
:101D0000F81E491F511D660F771F881F991F0694E3
:101D1000A1F70590079428F4E70EF81E491F561FF7
:101D2000C11D770F881F991F661F0694A1F70590A4
:101D3000079428F4F80E491F561FC71FD11D880F9E
:101D4000991F661F771F0694A1F70590079420F44A
:101D5000490F561FC71FD81F990F661F771F881F6F
:101D60000694A9F784911095177041F0D695C79500
:101D700057954795F794E7941A95C1F7E4E6F3E28F
:101D800068941590159135916591959105907FE234
:101D90007395E118F10A430B560BC90BD009C0F734
:101DA000E10CF11E431F561FC91FD01D7EF4703376
:101DB00011F48A95E6CFE894015030F0080F0AF448
:101DC0000027021708F4202F2395022F7A3328F0DA
:101DD00079E37D932A95E9F710C07D932A9589F6DA
:101DE000069497956795379517951794E118F10A1A
:101DF000430B560BC90BD00998F023957E91739530
:101E00007A3308F070E37C932013B8F77E91706109
:101E10007D9330F0839571E37D9370E32A95E1F72C
:101E20001124EF90FF900F911F91CF91DF9199278F
:101E300087FD90950895FC01059061507040011058
:101E4000D8F7809590958E0F9F1F0895FC016150E3
:101E5000704001900110D8F7809590958E0F9F1FCC
:101E60000895A3E0B0E0E7E3FFE00C944E0B182FD9
:101E700099836A837B83DB0113968C9181FD09C072
:101E80001FEFBFEFB983812F99812396E3E00C9474
:101E90006A0B82FF1BC0EA81FB8126813781848126
:101EA00095812817390754F40190F081E02DCF0176
:101EB0000196AA81BB818D939D931083EA81FB815A
:101EC00086819781019686839783DDCFAA81BB8126
:101ED0001896ED91FD911A97BD01812F0995892BD7
:101EE00069F3CECFA0E0B0E0E8E7FFE00C944F0B41
:101EF000AE014B5F5F4FFA0161917191AF0180912B
:101F00005603909157030E94EF06E2E00C946B0B8E
:101F10000F931F93CF93DF93E0915603F0915703F4
:101F20002381EC0100E010E021FD0EC00FEF1FEF58
:101F3000C801DF91CF911F910F91089521960995C6
:101F4000892B11F00FEF1FEF88816091560370917C
:101F50005703DB011896ED91FD918111EFCF8AE0D7
:101F60000995892B29F3E2CFAEE0B0E0EAEBFFE080
:101F70000C944D0B8C01CA0146E04C8309831A83F3
:101F8000FB016130704810F0E0E0F0E83197ED833C
:101F9000FE83A901BC01CE0101960E94EF064D818E
:101FA0005E8157FD0AC02F813885421753070CF414
:101FB0009A01020F131FF80110822E96E4E00C9490
:101FC000690BFA01AA27283051F1203181F1E894F8
:101FD0006F936E7F6E5F7F4F8F4F9F4FAF4FB1E01C
:101FE0003ED0B4E03CD0670F781F891F9A1FA11D17
:101FF000680F791F8A1F911DA11D6A0F711D811D18
:10200000911DA11D20D009F468943F912AE0269FDC
:1020100011243019305D3193DEF6CF010895462F3B
:102020004770405D4193B3E00FD0C9F7F6CF462F1C
:102030004F70405D4A3318F0495D31FD4052419385
:1020400002D0A9F7EACFB4E0A69597958795779542
:102050006795BA95C9F700976105710508959B01C9
:10206000AC010A2E06945795479537952795BA9552
:10207000C9F7620F731F841F951FA01D08956AE59D
:1020800073E00E9446108AE593E00895A8E0B0E06E
:10209000ECE4F0E10C944D0B8D839E836F83788785
:1020A000E0916A03F0916B030FEF1FEF309721F07F
:1020B00066E673E009958C01ED81FE818081918156
:1020C000A281B381409166035091670360916803D8
:1020D00070916903840F951FA61FB71F1016110674
:1020E0003CF4012E000C0008800F911FA01DB01DB4
:1020F00089839A83AB83BC836F817885CE010196F7
:102100000E949D10EF81F885028713872896E4E0EE
:102110000C94690BFC012FB7F89460916C037091DB
:102120006D0380916E0390916F032FBF309721F064
:1021300060837183828393830895A8E0B0E0E3EA2B
:10214000F0E10C94490B8B01FC016081718182816B
:10215000938120E831E541E050E00E94551169018A
:102160007A012CE330E040E050E00E9477112983AF
:102170003A834B835C83F80160836CE370E0898170
:102180009A810E94230BF80181836283C60106961F
:1021900067E070E00E94760B84832DEA3EE840E021
:1021A00050E0B601C7010E94771129833A836D83FD
:1021B0007E838F83988789819A8124E6289F600196
:1021C000299FD00C11246D817E818F81988525EB0C
:1021D00035E040E050E00E94771129833A836D8317
:1021E0007E83E980FA80EE0CFF1CEE0CFF1CEC0CE9
:1021F000FD1C8D819E81F5E6EF16F10488F10196B4
:1022000021E030E0A90144595E4F4817590750F4C6
:102210006DE671E0821B930B0E94230BE60EF71E06
:1022200020E030E044E6E40EF11CF801E682F7829B
:1022300080879187255C3F4F82179307D0F46FE129
:1022400070E00E94230BA82F862F2A2FF801858388
:10225000128613862F5F23832896E8E00C94650B83
:1022600041E024E6E216F10409F440E0242F30E0D6
:10227000C9CF69E970E0821B930B0E94230B262FC4
:10228000220F220FE22EE60E6DE370E00E94230B78
:10229000F62EFF0C6FE170E00E94230BA82F862F13
:1022A0002A2F8E5F8E0D8F0DD1CFA1E21A2EAA1B81
:1022B000BB1BFD010DC0AA1FBB1FEE1FFF1FA217F6
:1022C000B307E407F50720F0A21BB30BE40BF50BF3
:1022D000661F771F881F991F1A9469F7609570957C
:1022E000809590959B01AC01BD01CF010895052E0D
:1022F00097FB1EF400940E94370B57FD07D00E94F5
:10230000551107FC03D04EF40C94370B50954095B3
:10231000309521953F4F4F4F5F4F08950E94A11177
:10232000A59F900DB49F900DA49F800D911D112429
:102330000895B7FF0C948E110E948E11821B930B8F
:102340000895A29FB001B39FC001A39F700D811D8E
:102350001124911DB29F700D811D1124911D0895AE
:10236000F894FFCF00407A10F35A00A0724E18097B
:102370000010A5D4E80000E87648170000E40B54EC
:10238000020000CA9A3B000000E1F50500008096BB
:102390009800000040420F000000A08601000000ED
:1023A000102700000000E8030000000064000000A7
:1023B00000000A00000000000100000000002C7670
:1023C000D888DC674F0823DFC1DFAE59E1B1B7968B
:1023D000E5E3E453C63AE651997696E8E6C28426E8
:1023E000EB898C9B62ED407C6FFCEFBC9C9F40F2C4
:1023F000BAA56FA5F490055A2AF75C936B6CF96740
:102400006DC11BFCE0E40D47FEF520E6B500D0ED04
:10241000902E0300943577050080841E080000206C
:102420004E0A000000C80C333333330F986E12830A
:102430001141EF8D2114893BE65516CFFEE6DB18DE
:10244000D1844B381BF77C1D901DA4BBE4242032A3
:0E24500084725E228100C9F124ECA1E53D27D3
:10245E00494F543A732052656B6C616D627972C349
:10246E00A50000007A444CC3A56E6762656E7320AA
:10247E00646574656B746976627972C3A500000039
:10248E007A45537661727465205065747465727303
:10249E0020537661727462796767656E000080BB47
:1024AE00444661726D6F7220416E6B617320506194
:1024BE006A65722041420000803B45486564657242
:1024CE006C696765204861727279732042696C612C
:1024DE00720000409C45000000010000000000005A
:1024EE00C70600000000000200000000B606000053
:1024FE00000001000000004014545761726E696EB6
:10250E00673A207061796D656E7453756D203C204D
:10251E00302C20726573657474696E6720746F2039
:10252E00300072616E646F6D206E756D6225640A87
:10253E000052616E646F6D2073656C656374696FB4
:10254E006E206661696C6564207769746820636FBC
:10255E0064652025640A00310032003300340046E1
:10256E0072657120617272617920696E206D616988
:10257E006E3A2025642025642025642025642025BC
:10258E00640A004BC3B6702062696C00686F7320DA
:10259E00486172727900456E20676F642062696CC3
:1025AE00616666C3A47220002866C3B672204861B5
:1025BE0072727921290048656465726C69676520BD
:1025CE004861727279730042696C6172004BC3B6D6
:1025DE00702070616A2000686F73204661726D6FA3
:1025EE007220416E6B6100536B796E646120696E6F
:1025FE006E616E204DC3A57274656E00C3A47469BE
:10260E007420616C6C612070616A6572004CC3A5A8
:10261E00742050657474657200627967676120C3B7
:10262E00A5742064696700427967676120737661DB
:10263E0072743F0052696E67205065747465720043
:10264E004D79737465726965723F2052696E6720A9
:10265E004CC3A56E6762656E004CC3A56E6762655E
:10266E006E2066697861722062696666656E0053D7
:10267E00796E61732068C3A4723F00494F543A7358
:0E268E002052656B6C616D627972C3A500000D
:00000001FF
