:100000000C9434000C9451000C9451000C94510049
:100010000C9451000C9451000C9451000C94020269
:100020000C9451000C9451000C9451000C9451000C
:100030000C9451000C9451000C9451000C945100FC
:100040000C9451000C9451000C9451000C945100EC
:100050000C9451000C9451000C9451000C945100DC
:100060000C9451000C94510011241FBECFEFD8E026
:10007000DEBFCDBF11E0A0E0B1E0EAE5FBE002C0E9
:1000800005900D92A232B107D9F721E0A2E2B1E0CA
:1000900001C01D92A833B207E1F70E9425020C941B
:1000A000AB050C9400009BB19F708295807F892BDB
:1000B0008BB95998599A59988FEA94E00197F1F7BA
:1000C00000C000000895CF93DF930F92CDB7DEB745
:1000D0008983611561F0589A898182958F700E9499
:1000E000530089810F90DF91CF910C945300589861
:1000F000F3CF60E00C94630061E00C9463008AB17C
:10010000836F8AB92FEF80E792E0215080409040C2
:10011000E1F700C000008BB18C7F8BB98FE090E4D9
:100120000197F1F700C0000083E00E9453008FE0C8
:1001300090E40197F1F700C0000083E00E945300B3
:100140008FE090E40197F1F700C0000083E00E9487
:1001500053008FE090E40197F1F700C0000082E0C7
:100160000E94530088E20E9479008FE090E401979A
:10017000F1F700C0000088E20E9479008FE090E46F
:100180000197F1F700C0000088E20E9479008FE03B
:1001900090E40197F1F700C0000084E08093330100
:1001A0008CE00C94790080913301982F94609093A7
:1001B00033018C600C947900809133018B7F8093A4
:1001C000330188600C94790081E00E9479008FE30C
:1001D0009FE10197F1F700C00000089582E00E94BE
:1001E00079008FE39FE10197F1F700C000000895C7
:1001F00080913301982F91609093330189600C9422
:100200007900809133018E7F8093330188600C9454
:10021000790080913301982F9260909333018A6026
:100220000C947900809133018D7F80933301886035
:100230000C94790088E10C9479008CE10C9479009D
:1002400080913301982F92609093330186600C94D3
:100250007900809133018D7F8093330184600C9409
:10026000790080913301982F9160909333018560DC
:100270000C947900809133018E7F809333018460E8
:100280000C9479000F931F93CF93DF93880F880FFF
:10029000880F88738064EB010E9479008E01085FEB
:1002A0001F4F89910E947C00C017D107D1F780E8C9
:1002B000DF91CF911F910F910C947900E62FF0E020
:1002C000E050FF4F9081890F80680C947900CF93A4
:1002D000DF93EC018881811103C0DF91CF910895F4
:1002E00021960E947C00F6CFCF93DF93CDB7DEB787
:1002F0009E012B5F3F4FF901419151919F0161E1B7
:1003000070E082E291E00E94A50282E291E00E9408
:100310006701DF91CF91089582E08093B00094E06F
:100320009093B1008093700089EF8093B30008959B
:100330002FB7F894609134017091350180913601A6
:10034000909137012FBF0895E4E6F0E080818F7B24
:100350008083E0E78081826080830895E0E7F0E0B9
:1003600080818D7F8083E4E680818064808308952E
:100370008FB7F89410923401109235011092360123
:10038000109237018FBF0895EFB7F8942091340190
:10039000309135014091360150913701DC01CB019C
:1003A000820F931FA41FB51F8093340190933501D2
:1003B000A0933601B0933701EFBF0895EF92FF92FB
:1003C0000F931F93EFB7F8942091340130913501CA
:1003D000409136015091370179018A01E61AF70AF6
:1003E000080B190BC701D801809334019093350194
:1003F000A0933601B0933701EFBF1F910F91FF908B
:10040000EF9008951F921FB61F9211248F939F9310
:10041000AF93BF938091340190913501A091360143
:10042000B09137010196A11DB11D809334019093C5
:100430003501A0933601B0933701BF91AF919F91E1
:100440008F911F901FBE1F901895CDB7DEB7629792
:100450000FB6F894DEBF0FBECDBF0E947F0082E1D1
:10046000E0E1F1E0DE01119601900D928A95E1F74D
:100470008E010F5F1F4FF8018081811154C000E091
:1004800010E00F5F1F4FFFEF29E688E1F150204099
:100490008040E1F700C0000090E1E92EF12C0E94BD
:1004A0001D019FE7E9EAF3E09150E040F040E1F7F9
:1004B00000C0000021E0E21AF10889F78FEF99E609
:1004C000E8E181509040E040E1F700C0000061E0C9
:1004D00080E00E945E011F930F9384E091E09F9360
:1004E0008F930E9474010F900F900F900F9080E1F6
:1004F000E82EF12C0E941A01FFE729EA83E0F1506F
:1005000020408040E1F700C0000091E0E91AF108C6
:1005100089F7EFEFFBE722E9E150F0402040E1F7F7
:1005200000C00000AECF0F5F1F4F873209F4A3CF8A
:10053000853E0E947C002FEF81EE94E021508040A8
:100540009040E1F700C0000096CFAEE0B0E0EBEAEB
:10055000F2E00C9482058C01CA0146E04C830983C9
:100560001A83FB016130704810F0E0E0F0E8319749
:10057000ED83FE83A901BC01CE0101960E94D20247
:100580004D815E8157FD0AC02F8138854217530780
:100590000CF49A01020F131FF80110822E96E4E06A
:1005A0000C949E05ACE0B0E0E8EDF2E00C94770529
:1005B0005C016B017A01FC0116821782838181FF45
:1005C000D3C12AE0522EF5012381F60123FD859146
:1005D00023FF81916F01811509F42CC1853239F413
:1005E00023FD959123FF91916F01953229F4B50177
:1005F00090E00E94CD04E7CF30E0712C00E010E0E5
:10060000103210F59B32C9F050F49032B9F09332A9
:10061000C9F09E3261F516FD0DC1106405C09D3212
:1006200079F0903399F41160F60123FD959123FF41
:1006300091916F019111E4CF23C012601460F4CF47
:100640001860F2CF1061F0CF17FD1AC080ED890F4E
:100650008A30F8F616FF05C0759C800D1124782E9F
:10066000E3CF059D800D1124082F1062DDCF9C364D
:1006700011F41068D9CF9C3409F440C09836A1F227
:10068000892F8F7D85548330D8F1933609F45FC06C
:10069000933709F46AC0933509F476C0943619F09B
:1006A000993609F0A2C0F70117FF98C061917191C6
:1006B000819191917F011F7697FF03C00E946C0585
:1006C00010682AE030E04E014FEF841A940AA4012A
:1006D0000E940E05682E681816FFD2C0812F8E7FEB
:1006E000671408F0CCC014FF1DC112FD11C11E7E9D
:1006F000972C812F867809F4CEC00FC131E094CFBA
:10070000311509F1F8E0EF0EF11C8FE3898391E0D8
:10071000692E712C4E018FEF881A980A1F7713FDEE
:1007200004C06016710408F43FC06114710409F03C
:1007300042C0011509F447CFB50180E290E00E9464
:10074000CD040150F6CF44E0E40EF11CDECFF701FA
:1007500080818983F2E0EF0EF11C81E0682E712C1C
:100760004E014FEF841A940AD9CFF70181909190EE
:100770007F01672D70E016FD02C06FEF7FEFC401AF
:100780000E94C2043C01CACFF701819091907F0181
:10079000672D70E016FD02C06FEF7FEFC4010E946D
:1007A000B7043C011068BBCFB50180E290E00E9425
:1007B000CD040150B6CFF40117FD859117FF81914B
:1007C0004F01B50190E00E94CD0481E0011101C00C
:1007D00080E0081BF1E06F1A7108A7CF6191719159
:1007E000872F880F880B982F65CF9537C9F41F7E08
:1007F0001C872AE030E0FC85F7FF3BC0F7016191E0
:100800007191819191917F014E014FEF841A940A69
:10081000A4010E940E05682E68181C851F775CCF06
:10082000812F897F8C87903799F058F49835B9F0EB
:100830009F36E1F0F501868197812C96EFE00C94CC
:1008400093059837B9F714FD06C020E130E0D3CF07
:100850009C8590619C87EC85E460EC87F6CF14FF63
:1008600002C016601C8720E132E0C5CF28E030E0EE
:10087000C2CFF7016191719180E090E0C4CF182F51
:10088000962C14FF36CFFE01E60DF11D80818033DA
:1008900009F041C0197E13FD0EC010FF4FC0762C29
:1008A000901618F4700E7918902E802F891909155A
:1008B00008F480E0980E901608F042C0091914FF61
:1008C00041C0B50180E390E00E94CD0412FF09C051
:1008D00088E590E011FD02C088E790E0B5010E9434
:1008E000CD046714D0F14E018FEF881A980A6A94EC
:1008F000FE013296E60DF11D3F01F30182913F01A9
:10090000B50190E00E94CD0468147904B1F711CFCD
:10091000972C182FB8CF12FD02C09394BCCF93949C
:100920009394B9CF972C182FE4CEB50180E290E0D4
:100930000E94CD0483948016C0F3B7CF892CFBCFDF
:1009400000E0BDCF812F867861F280E211FD8BE25D
:1009500017FD8DE2B50190E0C2CFB50180E390E0D4
:100960000E94CD047A94BDCF8FEF9FEF66CFFC013C
:100970000590615070400110D8F7809590958E0FCA
:100980009F1F0895FC016150704001900110D8F73D
:10099000809590958E0F9F1F0895A3E0B0E0E3ED42
:1009A000F4E00C948305182F99836A837B83DB0121
:1009B00013968C9181FD09C01FEFBFEFB983812F82
:1009C00099812396E3E00C949F0582FF1BC0EA8186
:1009D000FB8126813781848195812817390754F45A
:1009E0000190F081E02DCF010196AA81BB818D930A
:1009F0009D931083EA81FB8186819781019686838E
:100A00009783DDCFAA81BB811896ED91FD911A974E
:100A1000BD01812F0995892B69F3CECFFA01AA2751
:100A2000283051F1203181F1E8946F936E7F6E5F31
:100A30007F4F8F4F9F4FAF4FB1E03ED0B4E03CD0DF
:100A4000670F781F891F9A1FA11D680F791F8A1FC2
:100A5000911DA11D6A0F711D811D911DA11D20D029
:100A600009F468943F912AE0269F11243019305DE3
:100A70003193DEF6CF010895462F4770405D4193D4
:100A8000B3E00FD0C9F7F6CF462F4F70405D4A3321
:100A900018F0495D31FD4052419302D0A9F7EACFE9
:100AA000B4E0A6959795879577956795BA95C9F718
:100AB00000976105710508959B01AC010A2E06940B
:100AC0005795479537952795BA95C9F7620F731FC4
:100AD000841F951FA01D0895909580957095619530
:100AE0007F4F8F4F9F4F08952F923F924F925F926B
:100AF0006F927F928F929F92AF92BF92CF92DF922E
:100B0000EF92FF920F931F93CF93DF93CDB7DEB792
:100B1000CA1BDB0B0FB6F894DEBF0FBECDBF099426
:100B20002A88398848885F846E847D848C849B847D
:100B3000AA84B984C884DF80EE80FD800C811B818B
:100B4000AA81B981CE0FD11D0FB6F894DEBF0FBEBA
:0A0B5000CDBFED010895F894FFCF2A
:100B5A000040145457616974696E673A202564002D
:100B6A00536B72697620696E206B27F62764656E6F
:020B7A003A003F
:00000001FF
