:100000000C9434000C9451000C9451000C94510049
:100010000C9451000C9451000C9451000C94020269
:100020000C9451000C9451000C9451000C9451000C
:100030000C9451000C9451000C9451000C945100FC
:100040000C9451000C9451000C9451000C945100EC
:100050000C9451000C9451000C9451000C945100DC
:100060000C9451000C94510011241FBECFEFD8E026
:10007000DEBFCDBF11E0A0E0B1E0E6E3FFE002C0EB
:1000800005900D92A43BB107D9F721E0A4EBB1E0B4
:1000900001C01D92AE3CB207E1F70E945E030C94D2
:1000A00099070C9400009BB19F708295807F892BEB
:1000B0008BB95998599A59988FEA94E00197F1F7BA
:1000C00000C000000895CF93DF930F92CDB7DEB745
:1000D0008983611561F0589A898182958F700E9499
:1000E000530089810F90DF91CF910C945300589861
:1000F000F3CF60E00C94630061E00C9463008AB17C
:10010000836F8AB92FEF80E792E0215080409040C2
:10011000E1F700C000008BB18C7F8BB98FE090E4D9
:100120000197F1F700C0000083E00E9453008FE0C8
:1001300090E40197F1F700C0000083E00E945300B3
:100140008FE090E40197F1F700C0000083E00E9487
:1001500053008FE090E40197F1F700C0000082E0C7
:100160000E94530088E20E9479008FE090E401979A
:10017000F1F700C0000088E20E9479008FE090E46F
:100180000197F1F700C0000088E20E9479008FE03B
:1001900090E40197F1F700C0000084E08093C5016E
:1001A0008CE00C9479008091C501982F9460909315
:1001B000C5018C600C9479008091C5018B7F809380
:1001C000C50188600C94790081E00E9479008FE37A
:1001D0009FE10197F1F700C00000089582E00E94BE
:1001E00079008FE39FE10197F1F700C000000895C7
:1001F0008091C501982F91609093C50189600C94FE
:1002000079008091C5018E7F8093C50188600C9430
:1002100079008091C501982F92609093C5018A6002
:100220000C9479008091C5018D7F8093C501886011
:100230000C94790088E10C9479008CE10C9479009D
:100240008091C501982F92609093C50186600C94AF
:1002500079008091C5018D7F8093C50184600C94E5
:1002600079008091C501982F91609093C5018560B8
:100270000C9479008091C5018E7F8093C5018460C4
:100280000C9479000F931F93CF93DF93880F880FFF
:10029000880F88738064EB010E9479008E01085FEB
:1002A0001F4F89910E947C00C017D107D1F780E8C9
:1002B000DF91CF911F910F910C947900E62FF0E020
:1002C000E058FE4F9081890F80680C947900CF939D
:1002D000DF93EC018881811103C0DF91CF910895F4
:1002E00021960E947C00F6CFCF93DF93CDB7DEB787
:1002F0009E012B5F3F4FF901419151919F0161E1B7
:1003000070E084EB91E00E94250484EB91E00E9470
:100310006701DF91CF91089582E08093B00094E06F
:100320009093B1008093700089EF8093B30008959B
:100330002FB7F8946091C6017091C7018091C801F0
:100340009091C9012FBF0895E4E6F0E080818F7B92
:100350008083E0E78081826080830895E0E7F0E0B9
:1003600080818D7F8083E4E680818064808308952E
:100370008FB7F8941092C6011092C7011092C8016D
:100380001092C9018FBF0895EFB7F8942091C6016C
:100390003091C7014091C8015091C901DC01CB01E6
:1003A000820F931FA41FB51F8093C6019093C701AE
:1003B000A093C801B093C901EFBF0895EF92FF92D7
:1003C0000F931F93EFB7F8942091C6013091C701A6
:1003D0004091C8015091C90179018A01E61AF70AD2
:1003E000080B190BC701D8018093C6019093C70170
:1003F000A093C801B093C901EFBF1F910F91FF9067
:10040000EF9008951F921FB61F9211248F939F9310
:10041000AF93BF938091C6019091C701A091C8018D
:10042000B091C9010196A11DB11D8093C6019093A1
:10043000C701A093C801B093C901BF91AF919F912B
:100440008F911F901FBE1F90189580917A019091F7
:100450007B012091610130916201820F931F2091F5
:10046000490130914A01820F931F20912C01309154
:100470002D01820F931F2091120130911301820FE1
:10048000931F0895CF93DF93FC01EB0180917A01D4
:1004900090917B010E94A10324E6269FC001279F23
:1004A000900D11248083918380916101909162016C
:1004B000BE010E94A103269FC001279F900D112419
:1004C000828393838091490190914A01BE010E94E9
:1004D000A103269FC001279F900D1124848395833B
:1004E00080912C0190912D01BE010E94A103269FB5
:1004F000C001279F900D112486839783809112015C
:1005000090911301BE010E94A103269FC001279F65
:10051000900D112480879187DF91CF910895CF931B
:10052000DF9360E080E00E945E0180EA91E09F93AB
:100530008F930E9474010F900F90C0E1D0E00E9451
:100540001D012FE789EA93E0215080409040E1F7B8
:1005500000C00000219799F7DF91CF910895089589
:10056000089508950895FA01E217F3077CF09F01BA
:10057000220F331F820F931FDC018D919D918617EF
:10058000970714F4EFEFFFEFCF010895A9014E1B79
:100590005F0B559547954E0F5F1FDA01AA0FBB1FE2
:1005A000A80FB91F0D90BC91A02DA617B7071CF47A
:1005B000FA013196D9CF9A01D7CFEF92FF920F93DC
:1005C0001F93CF93DF93CDB7DEB72C970FB6F89478
:1005D000DEBF0FBECDBF8B879C878A01FB01819157
:1005E000919189839A83DE01119681E090E07D01EB
:1005F000801791075CF10E9417049801215031097E
:10060000F901EE0FFF1FEE0DFF1D608171810E9449
:10061000A103BC016F5F7F4F40E050E0C7010E9423
:10062000B302880F991FEB85FC85E80FF91F8081C5
:1006300091812C960FB6F894DEBF0FBECDBFDF912F
:10064000CF911F910F91FF90EF9008952D913D91C3
:1006500041915191240F351F2D933D93129701968F
:10066000C7CFCF93DF93CDB7DEB72C970FB6F894F3
:10067000DEBF0FBECDBF8B879C878AE0E4E8F1E048
:10068000DE01119601900D928A95E1F780E090E0ED
:100690000E945204CB010E941C0445E050E06B858F
:1006A0007C85CE0101960E94DD022C960FB6F8944F
:1006B000DEBF0FBECDBFDF91CF910895CDB7DEB7BE
:1006C0006C970FB6F894DEBF0FBECDBF0E947F00BF
:1006D0000E948C0178940E9425027E0123E1E20EA3
:1006E000F11CBC01C7010E94420282E1EEE8F1E088
:1006F000DE01119601900D928A95E1F78E010F5F50
:100700001F4FF801808181110BC00E949801603257
:100710007E4481059105C8F3C7010E943103F5CFDE
:100720000F5F1F4F873269F3853E0E947C008FEF79
:1007300091EEE4E081509040E040E1F700C000001D
:10074000E0CF97FB072E16F4009407D077FD09D071
:100750000E94B50307FC05D03EF4909581959F4F0C
:100760000895709561957F4F0895AA1BBB1B51E1B9
:1007700007C0AA1FBB1FA617B70710F0A61BB70B11
:10078000881F991F5A95A9F780959095BC01CD01B6
:100790000895AAE0B0E0EFECF3E00C9441078987FC
:1007A0009A87FC01608171818281938100977040FA
:1007B000604021F464E279ED8BE597E02DE133EFC1
:1007C00041E050E00E94FF0629833A834B835C831B
:1007D0009B01AC01A7EAB1E40E941E076D837E83F2
:1007E0008F839887ACEEB4EF29813A814B815C818D
:1007F0000E942C072D813E814F815885260F371F7F
:10080000481F591FC901DA01B7FF03C00197A109A9
:10081000B048E985FA8580839183A283B3839F776B
:100820002A96E2E00C945D070E94C90308958CE7C4
:1008300091E00E94C903089580937C0190937D010B
:1008400010927E0110927F010895AEE0B0E0EBE2DD
:10085000F4E00C943F078C01CA0146E04C83098305
:100860001A83FB016130704810F0E0E0F0E8319746
:10087000ED83FE83A901BC01CE0101960E946504AF
:100880004D815E8157FD0AC02F813885421753077D
:100890000CF49A01020F131FF80110822E96E4E067
:1008A0000C945B07FC012FB7F8946091CA0170911A
:1008B000CB018091CC019091CD012FBF309721F0D9
:1008C00060837183828393830895ACE0B0E0EBE6AC
:1008D000F4E00C9434075C016B017A01FC01168290
:1008E0001782838181FFD3C12AE0522EF501238133
:1008F000F60123FD859123FF81916F01811509F494
:100900002CC1853239F423FD959123FF91916F011C
:10091000953229F4B50190E00E946006E7CF30E0FF
:10092000712C00E010E0103210F59B32C9F050F449
:100930009032B9F09332C9F09E3261F516FD0DC1C7
:10094000106405C09D3279F0903399F41160F6017E
:1009500023FD959123FF91916F019111E4CF23C065
:1009600012601460F4CF1860F2CF1061F0CF17FD61
:100970001AC080ED890F8A30F8F616FF05C0759C05
:10098000800D1124782EE3CF059D800D1124082FB2
:100990001062DDCF9C3611F41068D9CF9C3409F475
:1009A00040C09836A1F2892F8F7D85548330D8F1CD
:1009B000933609F45FC0933709F46AC0933509F49C
:1009C00076C0943619F0993609F0A2C0F70117FFE6
:1009D00098C061917191819191917F011F7697FFEC
:1009E00003C00E94160710682AE030E04E014FEF66
:1009F000841A940AA4010E94A106682E681816FFA2
:100A0000D2C0812F8E7F671408F0CCC014FF1DC1A7
:100A100012FD11C11E7E972C812F867809F4CEC05D
:100A20000FC131E094CF311509F1F8E0EF0EF11C60
:100A30008FE3898391E0692E712C4E018FEF881A24
:100A4000980A1F7713FD04C06016710408F43FC0B4
:100A50006114710409F042C0011509F447CFB501D2
:100A600080E290E00E9460060150F6CF44E0E40E80
:100A7000F11CDECFF70180818983F2E0EF0EF11CDB
:100A800081E0682E712C4E014FEF841A940AD9CF61
:100A9000F701819091907F01672D70E016FD02C0F3
:100AA0006FEF7FEFC4010E9455063C01CACFF701EA
:100AB000819091907F01672D70E016FD02C06FEF6D
:100AC0007FEFC4010E944A063C011068BBCFB5010C
:100AD00080E290E00E9460060150B6CFF40117FD5D
:100AE000859117FF81914F01B50190E00E9460064A
:100AF00081E0011101C080E0081BF1E06F1A71086C
:100B0000A7CF61917191872F880F880B982F65CFA0
:100B10009537C9F41F7E1C872AE030E0FC85F7FF7B
:100B20003BC0F70161917191819191917F014E01DB
:100B30004FEF841A940AA4010E94A106682E681837
:100B40001C851F775CCF812F897F8C87903799F028
:100B500058F49835B9F09F36E1F0F5018681978118
:100B60002C96EFE00C9450079837B9F714FD06C0A7
:100B700020E130E0D3CF9C8590619C87EC85E460D8
:100B8000EC87F6CF14FF02C016601C8720E132E02C
:100B9000C5CF28E030E0C2CFF7016191719180E0CC
:100BA00090E0C4CF182F962C14FF36CFFE01E60D2F
:100BB000F11D8081803309F041C0197E13FD0EC004
:100BC00010FF4FC0762C901618F4700E7918902EE6
:100BD000802F8919091508F480E0980E901608F006
:100BE00042C0091914FF41C0B50180E390E00E94A2
:100BF000600612FF09C088E590E011FD02C088E799
:100C000090E0B5010E9460066714D0F14E018FEFAD
:100C1000881A980A6A94FE013296E60DF11D3F018A
:100C2000F30182913F01B50190E00E9460066814D3
:100C30007904B1F711CF972C182FB8CF12FD02C04D
:100C40009394BCCF93949394B9CF972C182FE4CE60
:100C5000B50180E290E00E94600683948016C0F3A4
:100C6000B7CF892CFBCF00E0BDCF812F867861F212
:100C700080E211FD8BE217FD8DE2B50190E0C2CF5D
:100C8000B50180E390E00E9460067A94BDCF8FEFBB
:100C90009FEF66CFFC010590615070400110D8F7BE
:100CA000809590958E0F9F1F0895FC0161507040B4
:100CB00001900110D8F7809590958E0F9F1F089591
:100CC000A3E0B0E0E6E6F6E00C944007182F998325
:100CD0006A837B83DB0113968C9181FD09C01FEF32
:100CE000BFEFB983812F99812396E3E00C945C07D1
:100CF00082FF1BC0EA81FB81268137818481958137
:100D00002817390754F40190F081E02DCF010196A6
:100D1000AA81BB818D939D931083EA81FB8186819B
:100D20009781019686839783DDCFAA81BB81189630
:100D3000ED91FD911A97BD01812F0995892B69F3DA
:100D4000CECFFA01AA27283051F1203181F1E89461
:100D50006F936E7F6E5F7F4F8F4F9F4FAF4FB1E0AE
:100D60003ED0B4E03CD0670F781F891F9A1FA11DA9
:100D7000680F791F8A1F911DA11D6A0F711D811DAA
:100D8000911DA11D20D009F468943F912AE0269F6F
:100D900011243019305D3193DEF6CF010895462FCE
:100DA0004770405D4193B3E00FD0C9F7F6CF462FAF
:100DB0004F70405D4A3318F0495D31FD4052419318
:100DC00002D0A9F7EACFB4E0A695979587957795D5
:100DD0006795BA95C9F700976105710508959B015C
:100DE000AC010A2E06945795479537952795BA95E5
:100DF000C9F7620F731F841F951FA01D0895052E4C
:100E000097FB1EF400940E94160757FD07D00E941E
:100E1000770707FC03D04EF40C94160750954095C5
:100E2000309521953F4F4F4F5F4F08959095809596
:100E3000709561957F4F8F4F9F4F08950E9468076F
:100E4000A59F900DB49F900DA49F800D911D11241E
:100E50000895B7FF0C941E070E941E07821B930B78
:100E600008952F923F924F925F926F927F928F924E
:100E70009F92AF92BF92CF92DF92EF92FF920F9329
:100E80001F93CF93DF93CDB7DEB7CA1BDB0B0FB633
:100E9000F894DEBF0FBECDBF09942A8839884888F0
:100EA0005F846E847D848C849B84AA84B984C88486
:100EB000DF80EE80FD800C811B81AA81B981CE0F7D
:100EC000D11D0FB6F894DEBF0FBECDBFED01089562
:100ED000A29FB001B39FC001A39F700D811D11247B
:100EE000911DB29F700D811D1124911D0895A1E2E5
:100EF0001A2EAA1BBB1BFD010DC0AA1FBB1FEE1F94
:100F0000FF1FA217B307E407F50720F0A21BB30BDE
:100F1000E40BF50B661F771F881F991F1A9469F75A
:100F200060957095809590959B01AC01BD01CF01B6
:060F30000895F894FFCFC4
:100F3600494F543A732052656B6C616D627972C386
:100F4600A500E8034CC3A56E6762656E73206465F1
:100F560074656B746976627972C3A500A00F5376C7
:100F6600617274652050657474657273205376617E
:100F7600727462796767656E00DC054661726D6F33
:100F86007220416E6B61732050616A657220414226
:100F960000B80B48656465726C69676520486172C4
:100FA6007279732042696C61720088130100000037
:100FB6000040145401000200030004000500536BB6
:100FC60072697620696E206B27F62764656E3A0093
:100FD6004BC3B6702062696C20686F7320486172DB
:040FE600727900001C
:00000001FF
