:100000000C9438000C9455000C9455000C94550039
:100010000C9455000C9455000C9455000C9453020C
:100020000C9455000C9455000C9455000C947602D9
:100030000C9455000C9455000C9455000C945500EC
:100040000C9455000C9455000C9455000C945500DC
:100050000C9455000C9455000C9455000C945500CC
:100060000C9455000C9455006E616E00696E66002C
:1000700011241FBECFEFD8E0DEBFCDBF13E0A0E05C
:10008000B1E0ECECF1E202C005900D92A834B107AA
:10009000D9F723E0A8E4B3E001C01D92AA36B20765
:1000A000E1F70E942D0A0C9467100C9400009BB19C
:1000B0009F708295807F892B8BB95B985B9A5B9848
:1000C0008FEA94E00197F1F700C000000895CF9304
:1000D000DF930F92CDB7DEB78983611561F05A9A2D
:1000E000898182958F700E94570089810F90DF91DE
:1000F000CF910C9457005A98F3CF60E00C946700AE
:1001000061E00C94670080915903982F946090935C
:1001100059038C600C947D00809159038B7F8093F0
:10012000590388600C947D0081E00E947D008FE37C
:100130009FE10197F1F700C0000008958AB18C6F2C
:100140008AB98BB1837F8BB92FEF80E792E0215082
:1001500080409040E1F700C0000083E00E9457001B
:100160008FE090E40197F1F700C0000083E00E9467
:1001700057008FE090E40197F1F700C0000083E0A2
:100180000E9457008FE090E40197F1F700C0000053
:1001900082E00E9457008FE090E40197F1F700C0E1
:1001A000000088E20E947D008FE090E40197F1F763
:1001B00000C000000E9494008FE090E40197F1F7E6
:1001C00000C0000084E0809359038CE00E947D0011
:1001D0008FE090E40197F1F700C00000089582E0FD
:1001E0000E947D008FE39FE10197F1F700C00000BE
:1001F000089580915903982F9160909359038960D5
:100200000C947D00809159038E7F80935903886000
:100210000C947D0080915903982F9260909359031C
:100220008A600C947D00809159038D7F80935903DF
:1002300088600C947D0088E10C947D008CE10C9426
:100240007D0080915903982F9260909359038660A6
:100250000C947D00809159038D7F809359038460B5
:100260000C947D0080915903982F916090935903CD
:1002700085600C947D00809159038E7F8093590393
:1002800084600C947D000F931F93CF93DF93880FAE
:10029000880F880F88738064EB010E947D008E01B7
:1002A000085F1F4F89910E948000C017D107D1F7C6
:1002B00080E8DF91CF911F910F910C947D00E62F84
:1002C000F0E0EA55FE4F9081890F80680C947D0024
:1002D000FC01DC012C91211102C010820895233C05
:1002E00061F4DC0111963C91343AA1F040F43538C8
:1002F000A1F03639C1F0343899F0019609C0353A89
:1003000029F0363BD1F7029626EF02C0029625EE81
:100310002193DFCF029624EEFBCF029625ECF8CF97
:10032000029624ECF5CF029626EDF2CFCF93DF9321
:1003300000D000D0CDB7DEB789839A830E946801D0
:1003400029812B833A813C83EB81FC81808181115F
:1003500007C00F900F900F900F90DF91CF910895ED
:10036000EB81FC813196EB83FC830E948000ECCF13
:10037000EF92FF920F931F93CF93DF93CDB7DEB72A
:100380008E01075F1F4FF801E190F1908F01C701C7
:100390000E9468019801A70161E170E088E493E0A0
:1003A0000E946E0F88E493E00E949601DF91CF9146
:1003B0001F910F91FF90EF90089582E08093B0001D
:1003C00094E09093B1008093700089EF8093B30024
:1003D00008952FB7F89460915A0370915B03809150
:1003E0005C0390915D032FBF0895E4E6F0E0808107
:1003F0008F7B8083E0E78081826080830895E0E7DF
:10040000F0E080818D7F8083E4E68081806480835A
:1004100008958FB7F89410925A0310925B031092CC
:100420005C0310925D038FBF0895EFB7F89420919D
:100430005A0330915B0340915C0350915D03DC01F2
:10044000CB01820F931FA41FB51F80935A03909373
:100450005B03A0935C03B0935D03EFBF0895EF923D
:10046000FF920F931F93EFB7F89420915A033091A6
:100470005B0340915C0350915D0379018A01E61AA8
:10048000F70A080B190BC701D80180935A03909300
:100490005B03A0935C03B0935D03EFBF1F910F91CB
:1004A000FF90EF9008951F921FB61F9211248F9313
:1004B0009F93AF93BF9380915A0390915B03A09158
:1004C0005C03B0915D030196A11DB11D80935A0399
:1004D00090935B03A0935C03B0935D03BF91AF91D6
:1004E0009F918F911F901FBE1F9018951F921FB64E
:1004F0001F9211248F9380915F038F5F80935F031E
:1005000080915F038C3338F010925F0380915E031B
:100510008F5F80935E038F911F901FBE1F90189571
:10052000E1E8F0E080818860808388E09DE390933B
:10053000890080938800AFE6B0E08C9182608C9354
:10054000808185608083089540E050E09A01609149
:1005500082017091830180918401909185010E94B4
:10056000450B0E94230C872F880F880B982F0E9421
:100570005B0C2091670130916801409169015091B5
:100580006A010E94450B0E94230C872F880F880B5D
:10059000982F0E945B0C20914D0130914E014091AB
:1005A0004F01509150010E94450B0E94230C872F50
:1005B000880F880B982F0E945B0C20912E013091A0
:1005C0002F0140913001509131010E94450B0E9452
:1005D000230C872F880F880B982F0E945B0C20918B
:1005E00012013091130140911401509115010E94A4
:1005F000450B0E94230CCB010895CF92DF92EF921E
:10060000FF92CF93DF93EC0116161706A4F081E05A
:1006100090E0888319828A831B828C831D828E835B
:100620001F82BC0168877987DF91CF91FF90EF909F
:10063000DF90CF900895872F880F880B982F0E9406
:100640005B0C6B017C019B01AC016091820170919C
:10065000830180918401909185010E94B10B20E07B
:1006600030E048EC52E40E94E70C0E94540D0E94D6
:10067000230C688379839601A701609167017091CB
:1006800068018091690190916A010E94B10B20E09C
:1006900030E048EC52E40E94E70C0E94540D0E94A6
:1006A000230C6A837B839601A70160914D017091B1
:1006B0004E0180914F01909150010E94B10B20E0BA
:1006C00030E048EC52E40E94E70C0E94540D0E9476
:1006D000230C6C837D839601A70160912E0170919C
:1006E0002F0180913001909131010E94B10B20E0E7
:1006F00030E048EC52E40E94E70C0E94540D0E9446
:10070000230C6E837F839601A70160911201709183
:10071000130180911401909115010E94B10B20E00A
:1007200030E048EC52E40E94E70C0E94540D0E9415
:10073000230C78CF0F931F93CF93DF93CDB7DEB702
:100740002A970FB6F894DEBF0FBECDBF0E94E90115
:100750006D837E838F8398870E94E90169837A8302
:100760008B839C830E94EF0D63E070E00E94DD0AA2
:1007700089879A8789819A81AB81BC812D813E814D
:100780004F815885821B930BA40BB50B80329E447E
:10079000A105B10560F02A960FB6F894DEBF0FBE32
:1007A000CDBFDF91CF911F910F910C9402010E9458
:1007B000E90169837A838B839C830E949400298555
:1007C0003A852130310531F122303105A1F1232B59
:1007D00089F660E080E00E945F018DE392E00E9474
:1007E000960161E080E00E945F0186E492E00E9451
:1007F000960100E110E00E941E013FEF41EE54E03F
:10080000315040405040E1F700C00000015010401E
:1008100091F7B0CF60E080E00E945F0180E592E058
:100820000E94960161E080E00E945F0182E692E012
:100830000E9496019FCF60E080E00E945F0180E708
:1008400092E00E94960161E080E00E945F0181E8F1
:1008500092E00E9496010E94F9008CCF0F931F93A3
:10086000CF93DF93CDB7DEB72C970FB6F894DEBFEA
:100870000FBECDBF0E94E9016D837E838F83988771
:100880000E94E90169837A838B839C830E94EF0D28
:100890008B879C8762E070E00E94DD0A89879A87D7
:1008A0000E94940089819A81AB81BC812D813E8117
:1008B0004F815885821B930BA40BB50B80329E444D
:1008C000A105B10558F02C960FB6F894DEBF0FBE07
:1008D000CDBFDF91CF911F910F9108950E94E90143
:1008E00069837A838B839C832B853C8520FF16C08C
:1008F00049855A8541305105A9F660E080E00E94A3
:100900005F0181EA92E00E94960161E080E00E942E
:100910005F0186EB92E00E949601C4CF60E080E028
:100920000E945F0187E892E00E94960161E080E00A
:100930000E945F0181E992E00E94960108E210E0C6
:100940000E941E015FEF81EE94E051508040904084
:10095000E1F700C000000150104091F7A3CFCF9302
:10096000DF93CDB7DEB72A970FB6F894DEBF0FBE80
:10097000CDBF0E94E9016D837E838F8398870E949B
:10098000E90169837A838B839C830E949400898127
:100990009A81AB81BC812D813E814F815885821B1C
:1009A000930BA40BB50B80329E44A105B10548F012
:1009B0002A960FB6F894DEBF0FBECDBFDF91CF9160
:1009C00008950E94E90169837A838B839C838091D7
:1009D0005E0360E080FD25C080E00E945F0187EC3F
:1009E00092E00E94960161E080E00E945F0183ED49
:1009F00092E00E94960128E229871A860E941E0131
:100A00003FEF41EE54E0315040405040E1F700C02C
:100A1000000089859A85019789879A87892B71F7C4
:100A2000B6CF80E00E945F0181EE92E00E949601C5
:100A300061E080E00E945F018EEE92E00E949601EC
:100A4000A6CFCF93DF93CDB7DEB72C970FB6F89430
:100A5000DEBF0FBECDBF0E94E9016D837E838F8311
:100A600098870E94E90169837A838B839C830E9423
:100A7000EF0D8B879C8762E070E00E94DD0A89871A
:100A80009A870E94940089819A81AB81BC812D81D3
:100A90003E814F815885821B930BA40BB50B80328E
:100AA0009E44A105B10548F02C960FB6F894DEBF20
:100AB0000FBECDBFDF91CF9108950E94E9016983F8
:100AC0007A838B839C832B853C8520FF14C04985CA
:100AD0005A8541305105B9F660E080E00E945F011F
:100AE00083E193E00E94960161E080E00E945F0153
:100AF00082E293E00EC060E080E00E945F018AEF36
:100B000092E00E94960161E080E00E945F0185E032
:100B100093E00E949601B7CFCF92DF92EF92FF92BF
:100B2000CF93DF9300D000D0CDB7DEB70E94E901AC
:100B300069837A838B839C830E94E9016B017C012A
:100B400060E080E00E945F0189E293E00E949601EC
:100B500061E080E00E945F0185E393E00E949601DE
:100B600089819A81AB81BC81C81AD90AEA0AFB0A39
:100B700090E2C9169EE4D906E104F10458F00F9002
:100B80000F900F900F90DF91CF91FF90EF90DF903B
:100B9000CF9008950E94E9016B017C01E1CFFA0139
:100BA000E217F3077CF09F01220F331F820F931F80
:100BB000DC018D919D918617970714F4EFEFFFEFFD
:100BC000CF010895A9014E1B5F0B559547954E0F18
:100BD0005F1FDA01AA0FBB1FA80FB91F0D90BC91B0
:100BE000A02DA617B7071CF4FA013196D9CF9A01A8
:100BF000D7CFEF92FF920F931F93CF93DF93CDB791
:100C0000DEB72C970FB6F894DEBF0FBECDBF8B8733
:100C10009C878A01FB018191919189839A83DE01EE
:100C2000119681E090E07D01801791075CF10E94B0
:100C3000EF0D980121503109F901EE0FFF1FEE0D64
:100C4000FF1D608171810E94DD0ABC016F5F7F4FD3
:100C500040E050E0C7010E94CF05880F991FEB8547
:100C6000FC85E80FF91F808191812C960FB6F894CE
:100C7000DEBF0FBECDBFDF91CF911F910F91FF90CF
:100C8000EF9008952D913D9141915191240F351F81
:100C90002D933D9312970196C7CFCF93DF93CDB796
:100CA000DEB72A970FB6F894DEBF0FBECDBFBC01EA
:100CB0009AE0EAEAF1E0DE01119601900D929A9530
:100CC000E1F745E050E0CE0101960E94F9052A9631
:100CD0000FB6F894DEBF0FBECDBFDF91CF91089560
:100CE000CF93C82F8A3019F48DE00E94700680914E
:100CF000C00085FFFCCFC093C60080E090E0CF919C
:100D000008958091C00087FFFCCF8091C60090E0DD
:100D100008951092C50087E68093C400E0ECF0E0EF
:100D200080818D7F808386E08093C20088E18093FC
:100D3000C10008950E94890684E991E080936203CE
:100D40009093630386E891E080936003909361033E
:100D50000895AFE0B0E0EFEAF6E00C94F90A7C0108
:100D60003B015A01FC0116821782838181FF51C326
:100D70009AE0292EF7012381F30123FD859123FFBA
:100D800081913F01811509F442C0853239F423FD78
:100D9000959123FF91913F01953239F4B70190E08D
:100DA0000E94EB0E65015601E5CF30E010E0812C8A
:100DB000912CF0E28F1608F03CC09B3279F160F480
:100DC000903271F1933291F19E3209F045C086FC68
:100DD0001EC0689486F806C09D3229F1903359F5FB
:100DE000689480F8F30123FD959123FF91913F01D1
:100DF0009111DFCF082D097F903709F481C208F0E7
:100E000077C2983509F47FC29F3609F483C2F7018F
:100E1000868197812F96E2E10C94150B689481F8F6
:100E2000689482F8DFCF689483F8DCCF689484F804
:100E3000D9CF87FC1BC080ED890F8A3028F686FE4B
:100E400005C0129D800D1124182FCCCF929C800DCF
:100E50001124982E8F2AC6CF9C3619F4689487F8EF
:100E6000C1CF9C3409F1983609F4BCCF3115F1F0AB
:100E7000892F8F7D8554833008F095C1650128E066
:100E8000C20ED11C8FE3898301E010E05E013FEFC9
:100E9000A31AB30AE89487F883FC04C00915110566
:100EA00008F4E8C1592CFEC131E09CCF8BEB890FCF
:100EB000833090F4689484F8905E86FE16E04FE3E9
:100EC0008422953689F4689486F8212F183010F022
:100ED00027E017E0412C14C08BE9890F833008F01C
:100EE00062C1E89484F8E9CF963699F5689487F85A
:100EF000812F1C3308F08BE344244394480E27E0F1
:100F0000F50161917191819191916F01042DAE0173
:100F10004F5F5F4F0E94FD0D5C013980832D89700A
:100F20000DE2813029F082FA002705F981FC0BE2FD
:100F3000F32DFC705F2EF11541F133FA332433F8B1
:100F400001116AC224E0512C921608F47CC283E09D
:100F500068C220E0111509F4BDCF1150B6CF811041
:100F60008052B70190E00E94EB0E0F5F1F4FF80117
:100F700084918111F4CF511409F415CFB70180E2A7
:100F800090E00E94EB0E5A94F6CF87FE2FC0842D7E
:100F90008A0D34FE04C09A81913309F481504424AF
:100FA0004394181634F4482EF9E08F1710F088E0B7
:100FB000482EC501B7FE02C080E090E00196011105
:100FC0000196111531F0212F30E02F5F3F4F820F36
:100FD000931F8915910514F4592C581A882D89707E
:100FE000A1F551102BC00115C9F131C086FC23C0F9
:100FF000E12FF0E01A151B043CF02CEFA2162FEFA6
:10100000B20614F0689487F8CE010396E80FF91F32
:1010100001C01150111519F082918033D1F387FE70
:101020000AC044244394410EA116B10414F41A19C1
:10103000C0CF10E0BECF85E090E0C1CFB70180E225
:1010400090E00E94EB0E5A94CCCF011529F0B70125
:10105000802F90E00E94EB0E83FC02C051103FC035
:1010600087FE56C04501B7FE02C0812C912CCE01EF
:1010700001968A0D9B1DFC01E819F909EC87FD8793
:101080009501241931092E873F87012F10E0119512
:1010900001951109A814B9044CF18E859F85881516
:1010A000990524F5EC85FD858181F1E08F1A910881
:1010B00080169106ECF02C853D852F5F3F4F2C87E5
:1010C0003D87B70190E00E94EB0E3FEF8316980436
:1010D00009F7B7018EE290E00E94EB0EDBCFB7017B
:1010E00080E390E00E94EB0E5A94B8CF80E3DDCF0E
:1010F000A814B90431F49A81953318F039F434FE08
:1011000005C0B70190E00E94EB0E35CF81E3F9CF27
:101110008A81813311F0E89434F8B70190E00E949D
:10112000EB0E111124C085E490E084FC02C085E63A
:1011300090E0B7010E94EB0EA114B1041CF061F520
:1011400034FE2AC0B194A194B1088DE2B70190E0B9
:101150000E94EB0E80E39AE0A916B104FCF4B701FB
:1011600090E00E94EB0EB701C501C096CCCFB7014D
:101170008EE290E00E94EB0E1E5F02E0802F0F5F78
:10118000FE013196E80FF11D8081B70190E00E94C9
:10119000EB0E0113F3CFC7CF8BE2D8CF8F5F4AE0BE
:1011A000A41AB108D8CF9336B9F1933709F442C0E5
:1011B000933509F44EC0943619F0993609F07EC083
:1011C000F50187FE73C061917191819191916F01D9
:1011D000082D0F7697FF03C00E94F10A00682AE0ED
:1011E00030E05E01FFEFAF1ABF0AA5010E949B0F1E
:1011F000B82EBA1806FF98C0802F8E7FB11608F05F
:1012000092C004FFE4C002FDD8C00E7E512E802F94
:10121000867809F494C0D6C06501E2E0CE0ED11CF8
:10122000F5018081898301E010E05E01FFEFAF1AD4
:10123000BF0A30CEF501A190B1906F01612F70E02F
:1012400086FC02C06FEF7FEFC5010E94E00E8C01AB
:1012500021CEF501A190B1906F01612F70E086FC65
:1012600002C06FEF7FEFC5010E94D50E8C0168941C
:1012700087F812CEB70180E290E00E94EB0E9A94BC
:101280000DCEF50187FC859187FE81915F01B70145
:1012900090E00E94EB0E81E0511001C080E0581AEE
:1012A000015011090115110561F765CE6191719128
:1012B0006F01872F880F880B982F8ACF953709F0F9
:1012C00099CD082D0F7E2AE030E0F50107FF25C0FB
:1012D00061917191819191916F015E01FFEFAF1A60
:1012E000BF0AA5010E949B0FB82EBA180F7782CFB4
:1012F000983709F08CCD84FC04C020E130E0E5CFC4
:1013000000610460FACF84FE02C0082D066020E16F
:1013100032E0DBCF28E030E0D8CF619171916F01EE
:1013200080E090E0DACF082F5B2C04FF70CFFE0145
:10133000EB0DF11D8081803309F042C0097E03FD71
:101340000EC000FF50C01B2D591418F4190D1519AB
:10135000592C892D8519951408F480E0580E5914DC
:1013600008F043C09518592C04FF41C0B70180E331
:1013700090E00E94EB0E02FF09C088E590E001FDBD
:1013800002C088E790E0B7010E94EB0EB116D0F1E1
:101390008E010F5F1F4FBA949E012E5F3F4F2B0DA2
:1013A000311D5901F50182915F01B70190E00E9462
:1013B000EB0EA016B106B1F7DECD512E082FB7CF38
:1013C00002FD02C05394BBCF53945394B8CF512E17
:1013D000082F1DCFB70180E290E00E94EB0EA3948E
:1013E000A914C0F3B6CFA52CFBCF512CBDCF802FB5
:1013F000867861F280E201FD8BE207FD8DE2B701A4
:1014000090E0C2CFB70180E390E00E94EB0E115054
:10141000BDCF8FEF9FEFFECCF5E0512C9F1670F003
:1014200084E0592C581A83FC07C0B70180E290E091
:101430000E94EB0E5A94C9F7011529F0B701802FCD
:1014400090E00E94EB0E08E610E0311002C00CE6BE
:1014500010E084FA882484F88ACDCDB7DEB72C97C3
:101460000FB6F894DEBF0FBECDBF0E94DD010E9413
:101470009A060E94900280E090E00E94F90FCB0152
:101480000E94F40D0E949E0078940E94A40297FF8F
:1014900006C084EB91E00E94420F80E090E0BC0126
:1014A0004E012FEF821A920AC4010E94FD02E12C24
:1014B000F12C8701670156018B869C868B859C8564
:1014C0000E944D064C019F928F938CED91E09F936B
:1014D0008F930E942C0F0F900F900F900F9097FEFC
:1014E00012C09F928F928BEE91E09F938F930E94F8
:1014F0002C0F0F900F900F900F90E0CF8B859C8555
:101500000E944D064C0181149104C1F383E08816BA
:10151000910409F447C0F4F421E08216910451F1DA
:1015200082E08816910491F1FF92EF921F930F933E
:10153000DF92CF92BF92AF921F921F9289E192E009
:101540009F938F930E942C0F0FB6F894DEBF0FBEAF
:10155000CDBFB4CF94E08916910431F787E192E0D2
:101560000E94420F0E9494000E948C059FEFE91A8E
:10157000F90ADACF81E192E00E94420F0E949400C2
:101580000E942E042FEFA21AB20ACECF83E192E07E
:101590000E94420F0E9494000E94AF048FEFC81A6D
:1015A000D80AC2CF85E192E00E94420F0E949400C7
:1015B0000E9421050F5F1F4FB7CF97FB072E16F430
:1015C000009407D077FD09D00E94300B07FC05D0AE
:1015D0003EF4909581959F4F0895709561957F4F4A
:1015E000089590958095709561957F4F8F4F9F4F8F
:1015F00008952F923F924F925F926F927F928F92B7
:101600009F92AF92BF92CF92DF92EF92FF920F9391
:101610001F93CF93DF93CDB7DEB7CA1BDB0B0FB69B
:10162000F894DEBF0FBECDBF09942A883988488858
:101630005F846E847D848C849B84AA84B984C884EE
:10164000DF80EE80FD800C811B81AA81B981CE0FE5
:10165000D11D0FB6F894DEBF0FBECDBFED010895CA
:10166000AA1BBB1B51E107C0AA1FBB1FA617B707C8
:1016700010F0A61BB70B881F991F5A95A9F78095E4
:101680009095BC01CD0108955058BB27AA270E9410
:101690005C0B0C94AD0C0E949F0C38F00E94A60CC1
:1016A00020F039F49F3F19F426F40C949C0C0EF4AE
:1016B000E095E7FB0C94960CE92F0E94BE0C58F3C2
:1016C000BA17620773078407950720F079F4A6F527
:1016D0000C94E00C0EF4E0950B2EBA2FA02D0B010C
:1016E000B90190010C01CA01A0011124FF27591B67
:1016F00099F0593F50F4503E68F11A16F040A22F6D
:10170000232F342F4427585FF3CF469537952795DD
:10171000A795F0405395C9F77EF41F16BA0B620BDC
:10172000730B840BBAF09150A1F0FF0FBB1F661F23
:10173000771F881FC2F70EC0BA0F621F731F841F66
:1017400048F4879577956795B795F7959E3F08F08C
:10175000B0CF9395880F08F09927EE0F979587954E
:1017600008950E94C50B0C94AD0C0E94A60C58F075
:101770000E949F0C40F029F45F3F29F00C94960CD6
:1017800051110C94E10C0C949C0C0E94BE0C68F35B
:101790009923B1F3552391F3951B550BBB27AA272A
:1017A00062177307840738F09F5F5F4F220F331F64
:1017B000441FAA1FA9F335D00E2E3AF0E0E832D02C
:1017C00091505040E695001CCAF72BD0FE2F29D02F
:1017D000660F771F881FBB1F261737074807AB0701
:1017E000B0E809F0BB0B802DBF01FF2793585F4F76
:1017F0003AF09E3F510578F00C94960C0C94E10C55
:101800005F3FE4F3983ED4F3869577956795B79557
:10181000F7959F5FC9F7880F911D9695879597F962
:101820000895E1E0660F771F881FBB1F62177307DB
:101830008407BA0720F0621B730B840BBA0BEE1FF0
:1018400088F7E09508950E942A0C6894B1110C94D1
:10185000E10C08950E94C60C88F09F5798F0B92FAC
:101860009927B751B0F0E1F0660F771F881F991FD5
:101870001AF0BA95C9F714C0B13091F00E94E00C8B
:10188000B1E008950C94E00C672F782F8827B85F9B
:1018900039F0B93FCCF3869577956795B395D9F72D
:1018A0003EF490958095709561957F4F8F4F9F4F37
:1018B0000895E89409C097FB3EF490958095709543
:1018C00061957F4F8F4F9F4F9923A9F0F92F96E98C
:1018D000BB279395F695879577956795B795F11101
:1018E000F8CFFAF4BB0F11F460FF1BC06F5F7F4F9E
:1018F0008F4F9F4F16C0882311F096E911C07723B0
:1019000021F09EE8872F762F05C0662371F096E8B8
:10191000862F70E060E02AF09A95660F771F881F87
:10192000DAF7880F9695879597F9089597F99F6745
:1019300080E870E060E008959FEF80EC0895002457
:101940000A941616170618060906089500240A9424
:1019500012161306140605060895092E0394000CAA
:1019600011F4882352F0BB0F40F4BF2B11F460FF39
:1019700004C06F5F7F4F8F4F9F4F089557FD905862
:10198000440F551F59F05F3F71F04795880F97FB43
:10199000991F61F09F3F79F08795089512161306FD
:1019A0001406551FF2CF4695F1DF08C0161617062C
:1019B0001806991FF1CF8695710561050894089561
:1019C000E894BB2766277727CB0197F908950E94F3
:1019D000FA0C0C94AD0C0E949F0C38F00E94A60CDF
:1019E00020F0952311F00C94960C0C949C0C11246F
:1019F0000C94E10C0E94BE0C70F3959FC1F3950FFF
:101A000050E0551F629FF001729FBB27F00DB11D82
:101A1000639FAA27F00DB11DAA1F649F6627B00D12
:101A2000A11D661F829F2227B00DA11D621F739FFB
:101A3000B00DA11D621F839FA00D611D221F749F09
:101A40003327A00D611D231F849F600D211D822F50
:101A5000762F6A2F11249F5750409AF0F1F0882377
:101A60004AF0EE0FFF1FBB1F661F771F881F9150A4
:101A70005040A9F79E3F510580F00C94960C0C94B1
:101A8000E10C5F3FE4F3983ED4F386957795679534
:101A9000B795F795E7959F5FC1F7FE2B880F911DCE
:101AA0009695879597F908950E94C60CE8F09E37A1
:101AB000E8F09639B8F49E3848F4672F782F8827D5
:101AC000985FF9CF86957795679593959539D0F37B
:101AD000B62FB1706B0F711D811D20F4879577951E
:101AE000679593950C94780D0C94930D0C94E10CE0
:101AF000882371F4772321F09850872B762F07C025
:101B0000662311F499270DC09051862B70E060E098
:101B10002AF09A95660F771F881FDAF7880F969537
:101B2000879597F908959F3F31F0915020F487955C
:101B300077956795B795880F911D9695879597F935
:101B40000895AAE0B0E0E7EAFDE00C94090B89876C
:101B50009A87FC0160817181828193810097704036
:101B6000604021F464E279ED8BE597E02DE133EFFD
:101B700041E050E00E940C1029833A834B835C8340
:101B80009B01AC01A7EAB1E40E9423106D837E8320
:101B90008F839887ACEEB4EF29813A814B815C81C9
:101BA0000E9431102D813E814F815885260F371FAD
:101BB000481F591FC901DA01B7FF03C00197A109E6
:101BC000B048E985FA8580839183A283B3839F77A8
:101BD0002A96E2E00C94250B0E94A10D089582EA5A
:101BE00091E00E94A10D08958093A2019093A3011A
:101BF0001092A4011092A5010895283008F027E062
:101C00003327DA01990F311D87FD91600096610538
:101C1000710539F432602E5F3D9330E32A95E1F788
:101C200008959F3F30F080387105610509F03C5FF1
:101C30003C5F3D93913008F08068911DDF93CF9316
:101C40001F930F93FF92EF92192F987F9695E92F8C
:101C500096959695E90FFF27E45DFE4D992733276A
:101C6000EE24FF24A701E70105900894079428F4C7
:101C7000360FE71EF81E491F511D660F771F881F7C
:101C8000991F0694A1F70590079428F4E70EF81E13
:101C9000491F561FC11D770F881F991F661F069485
:101CA000A1F70590079428F4F80E491F561FC71F87
:101CB000D11D880F991F661F771F0694A1F7059005
:101CC000079420F4490F561FC71FD81F990F661F8E
:101CD000771F881F0694A9F784911095177041F01B
:101CE000D695C79557954795F794E7941A95C1F7F8
:101CF000E2EDF0E26894159015913591659195911A
:101D000005907FE27395E118F10A430B560BC90B5E
:101D1000D009C0F7E10CF11E431F561FC91FD01D8B
:101D20007EF4703311F48A95E6CFE894015030F0D8
:101D3000080F0AF40027021708F4202F2395022F1A
:101D40007A3328F079E37D932A95E9F710C07D93E3
:101D50002A9589F606949795679537951795179460
:101D6000E118F10A430B560BC90BD00998F02395E3
:101D70007E9173957A3308F070E37C932013B8F763
:101D80007E9170617D9330F0839571E37D9370E374
:101D90002A95E1F71124EF90FF900F911F91CF91B9
:101DA000DF91992787FD90950895FC01059061507A
:101DB00070400110D8F7809590958E0F9F1F089561
:101DC000FC016150704001900110D8F7809590950A
:101DD0008E0F9F1F0895A3E0B0E0E1EFFEE00C94AA
:101DE000080B182F99836A837B83DB0113968C91F0
:101DF00081FD09C01FEFBFEFB983812F9981239621
:101E0000E3E00C94240B82FF1BC0EA81FB81268156
:101E10003781848195812817390754F40190F08126
:101E2000E02DCF010196AA81BB818D939D931083F4
:101E3000EA81FB8186819781019686839783DDCF36
:101E4000AA81BB811896ED91FD911A97BD01812F52
:101E50000995892B69F3CECFA0E0B0E0E2E3FFE083
:101E60000C94090BAE014B5F5F4FFA0161917191C8
:101E7000AF0180916203909163030E94A906E2E0A2
:101E80000C94250B0F931F93CF93DF93E091620384
:101E9000F09163032381EC0100E010E021FD0EC00E
:101EA0000FEF1FEFC801DF91CF911F910F910895A0
:101EB00021960995892B11F00FEF1FEF8881609112
:101EC000620370916303DB011896ED91FD9181111E
:101ED000EFCF8AE00995892B29F3E2CFAEE0B0E09D
:101EE000E4E7FFE00C94070B8C01CA0146E04C8349
:101EF00009831A83FB016130704810F0E0E0F0E8DC
:101F00003197ED83FE83A901BC01CE0101960E94A9
:101F1000A9064D815E8157FD0AC02F813885421781
:101F200053070CF49A01020F131FF80110822E962A
:101F3000E4E00C94230BFA01AA27283051F1203158
:101F400081F1E8946F936E7F6E5F7F4F8F4F9F4F4D
:101F5000AF4FB1E03ED0B4E03CD0670F781F891F8F
:101F60009A1FA11D680F791F8A1F911DA11D6A0F5D
:101F7000711D811D911DA11D20D009F468943F9110
:101F80002AE0269F11243019305D3193DEF6CF010F
:101F90000895462F4770405D4193B3E00FD0C9F7D5
:101FA000F6CF462F4F70405D4A3318F0495D31FD42
:101FB0004052419302D0A9F7EACFB4E0A695979595
:101FC000879577956795BA95C9F70097610571056B
:101FD00008959B01AC010A2E0694579547953795B5
:101FE0002795BA95C9F7620F731F841F951FA01D0F
:101FF0000895FC012FB7F894609166037091670310
:1020000080916803909169032FBF309721F060831E
:102010007183828393830895052E97FB1EF40094A9
:102020000E94F10A57FD07D00E94451007FC03D01B
:102030004EF40C94F10A50954095309521953F4F00
:102040004F4F5F4F08950E943610A59F900DB49F8B
:10205000900DA49F800D911D11240895B7FF0C943D
:1020600023100E942310821B930B0895A29FB0019E
:10207000B39FC001A39F700D811D1124911DB29FBC
:10208000700D811D1124911D0895A1E21A2EAA1B25
:10209000BB1BFD010DC0AA1FBB1FEE1FFF1FA21718
:1020A000B307E407F50720F0A21BB30BE40BF50B15
:1020B000661F771F881F991F1A9469F7609570959E
:1020C000809590959B01AC01BD01CF010895F894D6
:1020D000FFCF00407A10F35A00A0724E180900108A
:1020E000A5D4E80000E87648170000E40B5402008D
:1020F00000CA9A3B000000E1F505000080969800B8
:10210000000040420F000000A086010000001027E0
:1021100000000000E8030000000064000000000070
:102120000A00000000000100000000002C76D888A2
:10213000DC674F0823DFC1DFAE59E1B1B796E5E3B5
:10214000E453C63AE651997696E8E6C28426EB89CE
:102150008C9B62ED407C6FFCEFBC9C9F40F2BAA56B
:102160006FA5F490055A2AF75C936B6CF9676DC103
:102170001BFCE0E40D47FEF520E6B500D0ED902E07
:102180000300943577050080841E080000204E0A65
:10219000000000C80C333333330F986E12831141A3
:1021A000EF8D2114893BE65516CFFEE6DB18D1846E
:1021B0004B381BF77C1D901DA4BBE4242032847295
:0C21C0005E228100C9F124ECA1E53D275E
:1021CC00494F543A732052656B6C616D627972C3DE
:1021DC00A50000007A444CC3A56E6762656E73203F
:1021EC00646574656B746976627972C3A5000000CE
:1021FC007A45537661727465205065747465727398
:10220C0020537661727462796767656E000080BBDB
:10221C00444661726D6F7220416E6B617320506128
:10222C006A65722041420000803B454865646572D6
:10223C006C696765204861727279732042696C61C0
:10224C00720000409C4500000001000000000000EE
:10225C008106000000000002000000007006000073
:10226C0000000100000000401454000001000200B6
:10227C00030004005761726E696E673A20706179D1
:10228C006D656E7453756D203C20302C2072657317
:10229C00657474696E6720746F20300072616E64AF
:1022AC006F6D206E756D6225640A0052616E646FED
:1022BC006D2073656C656374696F6E206661696C03
:1022CC006564207769746820636F64652025640AEF
:1022DC0000310032003300340046726571206172A7
:1022EC0072617920696E206D61696E3A20256420D7
:1022FC0025642025642025642025640A004BC3B680
:10230C00702062696C00686F73204861727279008A
:10231C00456E20676F642062696C616666C3A47247
:10232C0020002866C3B67220486172727921290098
:10233C0048656465726C696765204861727279736F
:10234C000042696C6172004BC3B6702070616A20E8
:10235C0000686F73204661726D6F7220416E6B6105
:10236C0000536B796E646120696E6E616E204DC393
:10237C00A57274656E00C3A474697420616C6C6181
:10238C002070616A6572004CC3A57420506574742A
:10239C00657200627967676120C3A5742064696700
:1023AC000042796767612073766172743F005269ED
:1023BC006E6720506574746572004D797374657224
:1023CC006965723F0052696E67204CC3A56E6762E7
:1023DC00656E004CC3A56E6762656E206669786198
:1023EC00722062696666656E0053796E617320684F
:1023FC00C3A4723F00494F543A732052656B6C6111
:08240C006D627972C3A50000A6
:00000001FF
